:020000040000fa
:080000000002040000000000f2
:020000040000fa
:100008009a0200009a0200009a0200009a02000078
:100018009a0200009a0200009a0200009a02000068
:100028009a0200005e4c00009a020000b6490000e7
:100038009a0200001a4d00009a0200009a0200007d
:10004800c64600009a0200009a020000ac78000040
:100058009a0200009a0200009a0200009a02000028
:100068009a0200009a0200009a0200009a02000018
:100078009a0200009a0200009a0200009a02000008
:100088009a0200009a0200009a0200009a020000f8
:100098004e6500009a0200009a0200009a020000d1
:1000a8009a0200009a0200009a0200009a020000d8
:1000b8009a020000d64d0000924e0000404f00000a
:1000c8009a0200009a0200009a0200009a020000b8
:1000d8009a0200009a0200009a0200009a020000a8
:1000e8009a0200009a0200009a0200009a02000098
:1000f8009a0200009a0200009a0200009a02000088
:100108009a0200009a0200009a0200009a02000077
:100118009a0200009a0200009a0200009a02000067
:100128009a0200009a0200009a0200009a02000057
:100138009a0200009a0200009a0200009a02000047
:100148009a0200009a0200009a0200009a02000037
:100158009a0200009a0200009a0200009a02000027
:100168009a0200009a0200009a0200009a02000017
:100178009a0200009a0200009a0200009a02000007
:100188009a0200009a0200009a0200009a020000f7
:100198009a0200009a0200009a0200009a020000e7
:1001a8009a0200009a0200009a0200009a020000d7
:1001b8009a0200009a0200009a0200009a020000c7
:1001c8009a0200009a0200009a0200009a020000b7
:1001d8009a0200009a0200009a0200009a020000a7
:1001e8009a0200009a0200009a0200009a02000097
:0801f8009a0200009a020000c7
:020000040000fa
:100208009a0200009a0200009a0200009a02000076
:100218009a0200009a0200009a0200009a02000066
:100228009a0200005e4c00009a020000b6490000e5
:100238009a0200001a4d00009a0200009a0200007b
:10024800c64600009a0200009a020000ac7800003e
:100258009a0200009a0200009a0200009a02000026
:100268009a0200009a0200009a0200009a02000016
:100278009a0200009a0200009a0200009a02000006
:100288009a0200009a0200009a0200009a020000f6
:100298004e6500009a0200009a0200009a020000cf
:1002a8009a0200009a0200009a0200009a020000d6
:1002b8009a020000d64d0000924e0000404f000008
:1002c8009a0200009a0200009a0200009a020000b6
:1002d8009a0200009a0200009a0200009a020000a6
:1002e8009a0200009a0200009a0200009a02000096
:1002f8009a0200009a0200009a0200009a02000086
:100308009a0200009a0200009a0200009a02000075
:100318009a0200009a0200009a0200009a02000065
:100328009a0200009a0200009a0200009a02000055
:100338009a0200009a0200009a0200009a02000045
:100348009a0200009a0200009a0200009a02000035
:100358009a0200009a0200009a0200009a02000025
:100368009a0200009a0200009a0200009a02000015
:100378009a0200009a0200009a0200009a02000005
:100388009a0200009a0200009a0200009a020000f5
:100398009a0200009a0200009a0200009a020000e5
:1003a8009a0200009a0200009a0200009a020000d5
:1003b8009a0200009a0200009a0200009a020000c5
:1003c8009a0200009a0200009a0200009a020000b5
:1003d8009a0200009a0200009a0200009a020000a5
:1003e8009a0200009a0200009a0200009a02000095
:0803f8009a0200009a020000c5
:020000040000fa
:10040000af0322000eff27000e018800000000004d
:10041000000020000000e000020032000001200087
:10042000200288000c00070020392700010020006e
:1004300011000700000020000000e0000200320070
:100440000000020000000000486002000000000000
:100450000040da000000fe004440a900c05f200018
:100460000000e0000300320000002000a00188002e
:100470004440a80000000600910188008000780038
:100480000000eb0015003700e280400032a0b4000d
:100490009101ba00e280400032a0b4009102ba009b
:1004a000e280400032a0b4000002eb00472bde00e7
:1004b000f507b200602ce10004003a000059eb009f
:1004c0008301e900fdff3e00040037006128e100e0
:1004d000010032000082eb00040007001101ba00a5
:1004e0000200e000e8ff3a00000006003159ba00bf
:1004f0008301e9000c0032002159ba008301e900b0
:10050000080032000400e00003003a00e2804000ee
:1005100032a0b400f5ff370011d9ba008301e90019
:10052000faff3a008100e800e180400032a0b40008
:10053000000006000040da000000fe000a00fa0099
:10054000e20f500022003e00b4f18000e10f5200a3
:1005500006003200872320004623200024232000a9
:1005600005232000e08f530004003a00872220007a
:10057000462220002422200005222000000028001e
:100580001500600003003a00800b78000700280087
:10059000958a7300054020009482620001003a00b1
:1005a00014a0a000820278000600370094037800af
:1005b0000710b200fdff3200b103fb00070b78000b
:1005c0008502e900e08f5200f8ff3a00080037008a
:1005d00034002000c0bf9f00e2bf9f00b4bf9f0057
:1005e000d1bf9f006a805700d21407006fb99700ef
:1005f000020078000080fa0000000600889fbe001c
:1006000080047800c0f18000e00f500004003a0040
:100610000e0007000084eb00e00f500008003500da
:10062000c8f18000e08f540005003200090044004a
:1006300006000700e00f500001003d000084eb00c1
:10064000080078004f04be0000000600e00f5000d4
:1006500004003a00a4e32100c4f1880000027800fd
:10066000060037000082eb00a5032200850f500032
:1006700002003e00c0f188000002eb000400780098
:1006800000000600889fbe008a9fbe008c1f780075
:10069000e30007001002200002003b0070de88002b
:1006a000e70037008a0062006408e10002003a00b7
:1006b00070de8800ef0037006108e100fcff3200c7
:1006c0000800be00030478006e07070001f0a100d7
:1006d0001606070008f0a600040037000001be005f
:1006e00091042400b0fd2000a803070009f0a70032
:1006f00001f0a200db003700839f68000100e000ea
:1007000002003d0060001000e08018000300e000df
:1007100002003d0060011100e08119005205070050
:100720004f00e00002003b0060001000e080180075
:10073000000006000001be00a40007000470a7002e
:1007400003f0a1006509b100160032000d0035006c
:100750006828e10006003500f0ff2f00f1ff2700b8
:100760000300e00013003b0001002800000005002a
:1007700000004000818048008502e900fcff3a004b
:1007800008003700f88f420002003c008000eb00b8
:10079000000005008100d1000080d3008502e80040
:1007a000fcff3a000300e00002003b006000100084
:1007b000e0801800000006000001be008300070072
:1007c0000470a70003f0a10003f8a30013003a008f
:1007d0006509b10010003200090035006928e10008
:1007e0000200350001002800000005000000400064
:1007f000818048008502e900fcff3a000000060005
:10080000f88f4200050035008100d1000080d30040
:100810008502e800fcff3a00000006008000eb00c3
:1008200000000500881f7800030478000300e00042
:1008300007003d0060001000e08018006001190012
:10084000e081190002003b0001f02d000300370099
:100850000700070008f0a70001f0a0004f0478008f
:10086000000006004f89de0082017800edff3700ae
:10087000889fbe008a9fbe00008270000402710043
:1008800004827100260032000004be000200be0097
:100890006011b8006b092000950220000182cf0092
:1008a0000a0039000541b1000082cf00070039007d
:1008b0000541b1000982cf00040039000541b100b3
:1008c0000882cf00010039000541b1000542520005
:1008d000120032000a003b00828171006101640055
:1008e0008100d1000080d3008984d3000884d30024
:1008f0008b05e8000442e800f7ff3a0007003700e4
:100900000804440089844c000000480081804800ad
:100910008b05e9000442e900f9ff3a0005000700f1
:100920004f05be004f04be00000006006011b80075
:10093000cfff370081002000618055000b003d0093
:100940000b00200061fe2f000100e1001d003400bb
:1009500082817100610164008904d1000884d300a0
:100960000000e800faff3a00710020006100640016
:1009700003007000020060000900320061044400be
:10098000e0844c000988a500050032008b05e800d2
:100990006808e10002003a008904d1000884d3000d
:1009a000f20f20000258e10005003d00c75ddd00a8
:1009b000f907b20089807500080078000000060081
:1009c0000bf827008b00780000000500c70ade0046
:1009d000f107b200f50fb20008003200e1cf42008b
:1009e000020032000170a00024000500810f700099
:1009f000010032000408050044000500810f70006a
:100a000002003a00140005008502e90000004000e1
:100a100081c04800fcff3b000170a00024000500dd
:100a20000004be00e9ff07000003be000405be008d
:100a30000200be00e5ff0700844f750000000600bd
:100a40000200be006450e100050036006420e100b1
:100a5000020036000968a30001003a000800be0049
:100a60000160a0004f0678004f05be004f04be0095
:100a700000000600f0ff2f00f1ff2700f9ff37000c
:100a80000c00fa00889fbe008a9fbe008c9fbe00ab
:100a9000e3ff07000206be00840578000200be00e6
:100aa00002002000000a070005003a008b02b30094
:100ab00012002000fc09070001003a00f8856d00d3
:100ac0000c01be00c60007000800be009b003200fb
:100ad0000b08a3009e003a000df0a7000be0a00059
:100ae00009f0a7000bf0a00009f0a1000801be006a
:100af000bb0007000bf0a6009500320001003c008f
:100b00000bd0a0008acf7500b20033006000b8009f
:100b10006250e10099003900a1003e000b28a300bb
:100b2000a2003a000bf8a300060032000b58a30005
:100b3000a70032000801be00a90007000800be009f
:100b4000940032000800be00ca0907000004be007d
:100b5000050578000bf0a7000b30a6000bf0a100f4
:100b60005b079800324f200053f32300f50907007c
:100b700005003d000800be0012002000f309070038
:100b80000004be000a05e9004a0798006150b90058
:100b900034ff0700008fbe000c01be006903070090
:100ba000e4fe0700300798000100e00002003d006d
:100bb00060001000e0801800f2ff2700820f500054
:100bc000e08f580064003e000c00be00d9fe070014
:100bd00020079800f2072000820f5000e08f580095
:100be00005003c0012f82f00f3ff2f00820f500089
:100bf000838f580009003d000a00e0000300320026
:100c000001003c000201ea00020578006000b80023
:100c1000200798003a079800190037003e0090001e
:100c20006100b9000fff0700809fbe000c00be00ee
:100c30004109dd004811de007208b1009a09070081
:100c40000005be001e01be003e0307004f01be00ae
:100c50004e020700809fbe000c00be000a01be00cd
:100c60004a0207001e01be00360307004f01be0006
:100c70004f0207008221270013f3230031030700ee
:100c80000005be002e0090006100b900f5fe0700cf
:100c900001f0a2000c01be00450207000006be00e4
:100ca0000800be00980107000c01be0025030700e4
:100cb0000a01be003e020700809fbe004a000700f6
:100cc0002e0590000af0a7000a05ea00050037008b
:100cd0000800be000801be001a0307000004be00a1
:100ce0000c00be000801be000a00a70015030700a3
:100cf0000006be000a05d100f5ff3a005e01900033
:100d000002e0a600030037000001be003600070025
:100d1000dc0507000004be004f00be009508070078
:100d20000801be00070307003e0190008709070085
:100d3000de0590000bf0a70001f0a2004f06be00f8
:100d40004f05be004f04be000080fa000000060000
:100d500025000700f9ff3700270007006000b800f2
:100d60000bd0a7000bc0a0000be0a7000bc0a20097
:100d70000bc0a70001f82700f0ff37000df8a30013
:100d8000020032001e000700190007000bf8a30044
:100d9000eaff32000b30a70001f0a200e7ff3700a6
:100da0000df8a300f9ff3a00f7ff37000801be0075
:100db0000b000700e6ff320001003c000df0a2002e
:100dc0006000b8000df0a70009000700dbff370046
:100dd0000b000700f1ff2700f0ff2f00d7ff3700bf
:100de000010007005709370001f823000000050043
:100df00001f8270000000500200220000100370054
:100e00001002200070de880000000600889fbe00ef
:100e10008a9fbe003004be002005be0004044400ca
:100e200085844c0006054d0087854d000898be005e
:100e30000a90be000440e10005c8e10006d0e100d0
:100e400007d8e10002003100680040001008e80007
:100e50004f05be004f04be00000006001000fa005f
:100e6000889fbe008a9fbe00110020000605be00bc
:100e70000404be003002be002003be00c4b79f00c1
:100e8000d5b79f00e6b79f00f7b79f000802520052
:100e900089825a000a035b008b835b0084bf9f003a
:100ea00095bf9f00a6bf9f00b7bf9f000498be00dc
:100eb0000698be004fb29700dfb297006fb397005d
:100ec000ffb397000820e10009a8e1000ab0e100a3
:100ed0000bb8e100010039008000eb004f05be00b7
:100ee000108810004f04be000080fa0000000600c9
:100ef0001400fa00889fbe008a9fbe008c9fbe002f
:100f00000006eb003e000700ccb79f00bcb79f0077
:100f1000acb79f009cb79f008cb79f000605be0032
:100f20000404be000d0420004fb39700bfb2970029
:100f3000860343002fb29700e00f530004003d00ea
:100f40003d0007000f004000b0ff0700030037001e
:100f5000390007000f004000c0ff0700cfb2970024
:100f600095bf9f00e08f5200090035002b0007005d
:100f700014002000050020006033b800000072005b
:100f80008180720002017300838173001c000700de
:100f90000c06e8008d0f5600e3ff3a001fba9700d9
:100fa000e00f520005003d000802be000a03be002b
:100fb00000fe2f000f00400094ff07004faa97008b
:100fc000e00f520008003a000fb497009fb497005a
:100fd0002fb59700bfb59700d8b79f00e9b79f001e
:100fe000fab79f008bbf9f000c0007004f06be00a2
:100ff0004f05be004f04be000080fa00000006004e
:10100000010007000000060090b79f00a1b79f00f5
:10101000b2b79f00c3b79f000000060001000700a1
:10102000000006001fb09700afb097003fb19700d7
:10103000cfb19700000006004f2bde00f9ff07003c
:1010400086837300858242004f23de00a7b79f008e
:10105000868272000402420095b79f00ffaa9700a3
:101060004f2bde00858242000602720084b79f008b
:101070006faa97004f23de000402420086827200ae
:10108000f5af9f004f18de0000027200e5ff070079
:10109000e4af9f0000004000818048000201490049
:1010a000838149000802be000a03be00d6ff070084
:1010b00000fe2f0000000600881f780018002000a6
:1010c000881f78008aff07008f87e9004f047800a7
:1010d00000000600801feb0085ff07008f87e900f6
:1010e00000000600889fbe008a9fbe00e00f5000ef
:1010f000e08f5800e00f5900e08f59000c003d00d0
:101100006044b8006055b8000000540081805c0065
:1011100002015d0083815d001800200015000700ba
:1011200008003d00180007000004eb000500370030
:101130000004eb000f00070002003d001200070052
:1011400018002000dcff0700e00f5400060032000a
:101150006022b8006033b8000000520081805a005d
:1011600002015b0083815b004f05be004f04be009f
:1011700000000600e00f5200e08f5a00e00f5b0015
:10118000e08f5b00000006006044b8006055b800c6
:101190000402540085825c0006035d0087835d00c5
:1011a00000000600889fbe008a9fbe008c1f78004a
:1011b000e00f5000e08f5800e00f5900e08f590019
:1011c0000d003d006044b8006055b8001c002000d0
:1011d0000000540081805c0002015d0083815d009d
:1011e0000820e10009a8e1000ab0e1000bb8e10025
:1011f0000d003d00080037000006eb00e00f520034
:10120000e08f5a00e00f5b00e08f5b0006003d00be
:101210006044b8006055b8000402540085825c0048
:1012200006035d0087835d00aaff0700e00f5600fc
:10123000060032006022b8006033b800000052009f
:1012400081805a0002015b0083815b004f067800b9
:101250004f05be004f04be0000000600889fbe0080
:101260008a9fbe008c1f78000006eb00e00f500044
:10127000e08f5800e00f5900e08f590007003d0053
:101280006044b8006055b8001c0020000000540005
:1012900081805c0002015d0083815d00e00f5200ef
:1012a000e08f5a00e00f5b00e08f5b0007003d001d
:1012b0006044b8006055b8000c00a200040254005d
:1012c00085825c0006035d0087835d00410807009e
:1012d000e00f5600060032006022b8006033b8000c
:1012e0000000520081805a0002015b0083815b0094
:1012f0004f0678004f05be004f04be0000000600f8
:10130000f2ff2f00010037000001eb00850007000d
:101310000718a3006e0032000728a30002003a005d
:101320000738a3006a003200889fbe008a9fbe0073
:101330008c9fbe008e1f78003400f800080020004b
:10134000a8018800020778009f05070002047800c2
:101350000620200086844000ca4cde00f084540041
:101360006848e100010035000804e8000001eb00d6
:101370000900e0002100320006a12b0066c27c00bb
:101380000482fb004622dd0004e0a0000123b80037
:101390000020b8008680400060814b0006002200db
:1013a000060151009d0207000100780082007800cc
:1013b00061811100060028000608e10004003a00df
:1013c0000000e00002003a0001002c000201e800e9
:1013d0000100e00001003a000001eb000006be0041
:1013e00082057800670341000600e00008003d0028
:1013f00043002000c4a82b0007003700050024008c
:101400000400200003002000cf050700f3ff370091
:101410005300200084a82b00d00107000c02be005e
:101420008b017800ff0407006f8364000600320020
:101430002aa22b00664bb800060545003a02be0002
:101440009a017800c00507000800e0001300320090
:101450000006be0082057800c4bf2000958b2500e1
:101460000440b8000543b8008680400060814b000e
:1014700008f8a300020032008480500005015900e2
:101480006602070001007800820078006f81110079
:101490000c02be008b017800ad0507000e00e000d5
:1014a0000400320054c52e00d5f22600e3ff2f00c1
:1014b000dc040700f10507003400f9004f0778004d
:1014c0004f06be004f05be004f04be0000000600e0
:1014d0000778a30005003a000768a3000500320062
:1014e0000718a30003003200000006000160a000fe
:1014f000090037000748a300050032000718a300c1
:10150000030032000000200001f82f000000060058
:10151000f0ff2f00f1ff27001202200072de88008a
:10152000000006002700200001f0a700170020009f
:10153000470bde00f60fb200040032000643e8005d
:101540000a0032004702b3000000060001037800e1
:10155000f607b2000603700002003a000703b3006a
:10156000000006008702b3000000060001037800b7
:10157000f607b20006037000020032000770a000f8
:10158000000006000760a0000000060007f8270022
:10159000078361000638e10004003a00f7072000e5
:1015a000878361008703710001003a0003f0a20005
:1015b000889fbe008a9fbe008c9fbe00470ade0047
:1015c0000480a100c71ade000580a10007002800e2
:1015d0000785600087856100f70f20000720e10084
:1015e0009e0032000728e1009c00320001067800ce
:1015f0000400e000b4003200f7072000878060009c
:101600000170a0000500e000c0003200f7072000d4
:10161000878161000370a000050652000f003a00a8
:101620000b50e1000b0032000308e10002003a0019
:101630000200e1007e003200020450008384580062
:10164000040031000001fd008101fd008402fd0065
:101650008a05fd006044b800210037000520e10044
:1016600005003d000001fd008101fd008402fd0038
:101670008a05fd00050652007a60e100050035008c
:101680000170a1004722dd00848070008a80700014
:10169000630037006044b800ef02660007ff2f00c8
:1016a000070666000500e00006003400f083120023
:1016b0008714dd000511de00071bdd000601710047
:1016c0008519de007060e10005003500090478002e
:1016d00082047800030178008001eb007006560058
:1016e0000b50e10003003a000200400083804800f4
:1016f0000400370060041400e0841c00020058005d
:10170000838058000188a300060032008100d100c8
:101710000080d3008984d3000884d3000402e80049
:10172000270037000178a30025003a000100e000ff
:10173000030032008186cf00698656000a00370018
:101740008c0020000000e00004003a00090078004e
:10175000880478000004eb00700252008086cf00fd
:101760000d0646000c06e9007060e1000600350039
:101770008000780009007800880478000004eb00fd
:1017800070065600700252000c00e0000c0034009d
:101790008c08dd00f00316000703de008680700071
:1017a0000c00dd00074bde00060070008c4cdd00f5
:1017b0000743de00868474000c44dd000c025200f6
:1017c0006120e10020003500610160000700280071
:1017d00087816400f7ff2700878364000703740094
:1017e0000300e000060032008203730004003200b0
:1017f0000000e800e08048000188a3000e003a00e5
:10180000f70f20000720e1004a003d000170a10011
:101810004722dd00810072008a8070000000be0057
:101820004f06be004f05be004f04be00000006007c
:101830006000b800faff37008100d1000080d300bb
:101840000402e800eeff370004017800890174000b
:10185000900407008a807000f1ff370031ff070015
:10186000070278000001fd008101fd002dff070047
:1018700087027800850372000778a3000400320015
:101880000001fd008101fd00dd030700e4ff3700da
:10189000850362000768a300080032000b50e100d6
:1018a00003003200f0ff2f00f1ff2700dcff3700bc
:1018b0000001fd008101fd00d9ff37000468a3008d
:1018c000d7ff3200faff3700f8ff27008883600057
:1018d0000b003a000000e00009003a0083036400b6
:1018e00082837300020032000200be00ccff37008a
:1018f0000b50e100ceff3a000200be00c8ff3700e7
:1019000014002000810064003eff3700f8ff27002c
:101910008883610004003a000200e00002003a00ff
:101920008c007800beff37001500200083016400a2
:1019300039ff370001f82700000020008100750002
:10194000b7ff370003836800070028000703630020
:10195000470ade000480a100c71ade000580a1004e
:10196000f70f20000720e100420032000728e100c5
:1019700040003200889fbe008a9fbe008c1f780006
:10198000f107b200f307b2000400e0006400320087
:101990000170a0000500e000680032000370a000a4
:1019a00085054200eb07b1000204b8000302b8004d
:1019b0008484440060854a00020ab800848444009c
:1019c0000a854a00030ab8000405450004003300f4
:1019d0000804d0008984d2000a85d2008b05e90072
:1019e0006158e1003d00350002102000090161004e
:1019f0000308200089816100f707200087836400c5
:101a000008867300c84cde00c853dd00878474006c
:101a10004855de000300e000060032008203760035
:101a2000040032008904e80060054d000a88a30024
:101a30000c003a00f70f20000758e10044003d0079
:101a40000a70a100c75ddd000a8575008a00730079
:101a5000090078004f0678004f05be004f04be0015
:101a6000000006000a05d1008984d3008b05e80038
:101a7000f0ff3700881f780006047800a9fe0700f1
:101a8000070278000001fd008101fd00a5fe0700ae
:101a900087027800850372000778a30005003200f2
:101aa0000001fd008101fd00550307004f0478008f
:101ab00000000600850372000748a30003003200ff
:101ac000f0ff2f00f1ff2700f8ff37000000200093
:101ad00001f8270088807000f4ff37008801780043
:101ae0004848dd00808171004848de00c850dd00b4
:101af00001007000c850de00060478000b01780079
:101b0000e403070088807000d2ff37000500e00082
:101b100005003200170020002b0207009dff370050
:101b200081037000f9ff3a00860078004f067800c4
:101b30004f05be004f04be00000005008303710086
:101b4000f9ff3200270020001f02070094ff370032
:101b500001f8270086807000f4ff37006218e1006a
:101b60003b003500889fbe008a9fbe008c9fbe0050
:101b70008301e9000004be000205be0004067800ef
:101b8000620545000a05ea003c00be007050e10015
:101b9000170035000d0032007f50e10001003400d5
:101ba000fa012000f00655000801be00bf00070042
:101bb0000d99de00cf99de003c004100bc80490059
:101bc0008b05e900f8ff3c00140037000801be0057
:101bd000b600070003017800cf99de003c00410009
:101be000bc8049008b05e900f8ff3c000b00370082
:101bf000f00615000801be00ac0007000a11de0067
:101c00008d1add00050171008a99de003c0041005b
:101c1000bc8049008b05e900f6ff3c000103df00b2
:101c20000605ea00050034008a08dd007002150090
:101c30008402de00858070000a00dd000601780065
:101c40004f06be004f05be004f04be000000060058
:101c50000300e00002003a006000b8000200050046
:101c60003400be00020005000202500083825800ca
:101c70006100390003037100620032000503720045
:101c8000590032000300e0005500330017003a000d
:101c90000100e0004b0032000208e10006003100c4
:101ca000110009004288d800010178008001eb0092
:101cb0008000eb00000006006110e10055003200da
:101cc0000002be00110009008280d8008002780066
:101cd00004007800110009004288d8000101780052
:101ce0008001eb008500780000000600889fbe00a0
:101cf0008a9fbe008c9fbe000386cf000c06e900c1
:101d00008c1f78008c19dd00f00216000512de0031
:101d1000848171000c11dd000003be008004eb0023
:101d2000053cde008c3bdd000532de008483730061
:101d30000c33dd00070078008800780011000900ee
:101d40004388d8000202b8000306b8008c82420023
:101d500060854e008005eb000402530085825b0025
:101d60000a055c008b855c000b0033008000eb00f3
:101d70004f0678000c21de00700516000a2ddd00ec
:101d80000a0171008c29de004f06be004f05be001f
:101d90004f04be00000006000202420083824a0097
:101da00060054d00e0854d000000e9000b00e000fb
:101db000eeff3d000202420083824a000000e9007b
:101dc000eaff37000000e0001200320011000900b5
:101dd0000280d800010178008000eb0000000600be
:101de0000401be00010037006011b800100020009f
:101df0008000eb00000006000001be006000b8009b
:101e0000000006000001be00f0ff2f00f1ff2f00d0
:101e1000000006006011b800000006008001eb0021
:101e20000202df000402ea006f20e10010003a0025
:101e30000201d1000181d3008080d3004f00dd007a
:101e4000f30020000202df000402ea006f20e1003c
:101e500007003a000201d1000181d3008080d30045
:101e60000000eb00e30120000202df000402ea00b0
:101e70000400e00009003200f00212000411dd004d
:101e8000050bde00060171008408dd000503de009d
:101e9000868070000400dd00848141000200e000c3
:101ea000010032000000060003000500889fbe000c
:101eb0008a9fbe008c1f78000002be000203be0095
:101ec0000620b800062db8008a80400060814d00d1
:101ed0000724b800072db8008a84440060864d00ae
:101ee0008100440002814c00e0014e000700e00048
:101ef000080035000500e00002003d000601510029
:101f0000878159004f0678004f05be004f04be0080
:101f1000000006000401510085815900f5ff3700db
:101f200051ff07000200be0000000600889fbe00af
:101f30008a9fbe008c9fbe003400f800060020007f
:101f4000a6018800060028008686600001f0a10036
:101f50000600200007e02300060350008783580096
:101f600012003100060020000798230006035000ed
:101f7000878358005c003900930207000005be000b
:101f8000820478000002be0082017800250207006a
:101f900043002000c4a92b00f0fe07000a02be0087
:101fa000890178001f0207004e003700060020005c
:101fb00007102400060350008783580038003100c2
:101fc0000600200007fd2300060350008783580009
:101fd0000b0031007c0207000005be00820478007f
:101fe000620141001d050700000678007704070024
:101ff00062015100809fbe00821f780008003700f8
:10200000710207000005be00820478001305070076
:10201000650640006d040700809fbe00821f7800a7
:102020000a02be0089017800070024000600200093
:1020300008002000510007000005fd008105fd009b
:102040008204fd00cf0178004f02be00be020700ef
:102050000a02be0089017800d3010700010478005c
:1020600008f8a3000200320060001000e0801800b1
:102070002d00070008f8a3000200320060001000e5
:10208000e0801800c6aa2b006665b800060345006c
:102090003602be0096017800ad020700110037003d
:1020a0000600200007c8240006035000878358005c
:1020b00013003100440207000002be0082017800d4
:1020c000010024000000200002002000b6010700eb
:1020d000150007007548260014d52e0003002000c7
:1020e00096020700e50207008d8070003400f900b9
:1020f0004f06be004f05be004f04be0000000600a4
:1021000008fd07000778a30003003a00b0fd200097
:1021100091fc2300f4ff37000160a00016022000ac
:1021200076de8800f0ff37000100e0000d0032008d
:10213000ef0341000b003500809fbe00821f780036
:102140000002be0082017800b601070043002000b3
:10215000c4a92b0081fe0700cf0178004f02be000a
:10216000b00107000000060060001000e0801800c9
:102170000200370060031300e0831b00889fbe004d
:102180008a9fbe008c9fbe00830441000405b800f6
:10219000050eb8000501b8008285450003064e0013
:1021a000e0864e000409b8008285450003064e0013
:1021b000e0864e000100e00002003d0004065600eb
:1021c00085865e000500e00002003d000006560026
:1021d00081865e000d00e000740032000700e00020
:1021e000750032006022b8008783d1000683d300d7
:1021f0008582d300090054000000e9001b003c0068
:102200003b0035000804e8000a0042008b804a00c9
:102210000c014b008d814b00c104070004045400e5
:102220000300e0000e003200090028000918e10058
:10223000060032000200be00080178004f06be0012
:102240004f05be004f04be00000006000200e00083
:10225000f8ff3a0003002c000804e800f5ff3700ff
:102260006000b8000001eb00f4ff37000804e8004c
:102270007e00e10001003400e0012000cfecde0030
:10228000ef0060000100e0000c003200f08110005f
:102290000155de000359dd0002057500815dde0099
:1022a0000361dd00828575000166de000369dd00e3
:1022b0000206760081eede00010050004400de00e0
:1022c0006501b800026001000a0042008b804a00ec
:1022d0000c014b008d814b00cfff37000b004200fb
:1022e0008c804a000d014b0089814b00caff3700ea
:1022f000628444000000ea00030420000300e100bf
:102300000100340000042000cfbcde00ef006000bc
:102310000a003200f0811000032add00812ade006d
:102320000331dd00828272000133de000339dd00fb
:102330000203730081bbde00010050004400de0098
:102340006501b800026001000a0042008b804a006b
:102350000c014b008d814b00afff37000a8042001b
:102360008b004b000c814b008d814c00aaff370085
:102370000a0043008b804b000c814c008d814c0087
:10238000a5ff37000a8043008b804c000c814c0075
:102390008d814c00a0ff37000a8044008b804c00e8
:1023a0000c814c008d814c009bff37000600be0065
:1023b00008017800a1ff37000c01be000a00be0032
:1023c0006284440094ff3700889fbe000004eb0045
:1023d0006138e10016003a000100e00008003a0010
:1023e000c800de004800dd00880020000100e00099
:1023f00003003a00c800de004800dd006804440025
:102400008184cf00e9845400060034008908dd008f
:10241000f08314008703de00878070000900dd0070
:1024200009044400610214004f04be0000000600cd
:102430000300e00008003a00c811de004811dd008a
:10244000880020000300e00003003a00c811de000d
:102450004811dd00680444008384cf00e9845400ff
:10246000060034008919dd00f08314008713de00b4
:10247000878171000911dd0009044400e1021400a4
:10248000e9ff3700889fbe008a9fbe008c9fbe0078
:102490001b0020000202be0005866800060028001e
:1024a000060666004709de00f20fb2008200320025
:1024b0000243e80080003200c729de00f30fb200bb
:1024c0007d0032000343e8007b003200f107b200d8
:1024d0000170a000f507b2000570a000c708dd007c
:1024e0004903de00868070004700dd00c72add005a
:1024f0004923de00868272004722dd000305510079
:1025000004035000858358000300310000004000a0
:10251000818048000a05e9008c1f78008a9fbe0070
:1025200004005000858058000402420085824a0061
:1025300000004000818048000005eb000004be0060
:102540006033b8000406be000d48e10056003100bb
:10255000110009004dccd8000c01b8000d02b800e4
:102560008481410060824a008283530003045c003e
:1025700084845c0060055d000a00e00025003a00ec
:10258000800578000d40e1004900310088007800a6
:1025900007007800110009004d88d8000c01b80030
:1025a0000d02b8008481410060824a00600311007e
:1025b00083835b0004045c00e0845c000900e000ad
:1025c00021003a004f01be000300e0002b00320062
:1025d000e3016000070673008c8171000100320086
:1025e000640070004200de004e5edd000c007000f2
:1025f000c258de0001e0a000a0010700cf01780072
:10260000818071004f06be004f05be004f04be0022
:10261000000006008c8343000d044c00e0844c0055
:1026200060054d000000e9000a00e000d4ff320020
:102630008c8343000d044c00e0844c0060054d0089
:102640000000e900ceff37000c0343008d834b00f0
:1026500060044c00e0844c000000e9000900e00048
:10266000d8ff32000c0343008d834b0060044c0004
:10267000e0844c000000e900d2ff37004200de0099
:102680004e5edd000c007000c258de0001e0a000cc
:10269000cf0178000300e000daff32006000100094
:1026a000e0801800d7ff3700f0ff2f00aaff3700a7
:1026b000f0ff2f00b9ff37000404be0099fb0700ac
:1026c000870678000004fd008104fd0095fb0700eb
:1026d000078366000678a300030032000960a700a4
:1026e0000800be002c0037000d78a3000200320065
:1026f0000800be00280037000778a30026003a0033
:1027000001f0a10009f0a1000668a3000300320057
:10271000f1ff2700f0ff2f00baff37000d68a3007c
:10272000030032000800be008c807000b5ff370047
:102730000768a30007003a000648a3000300320020
:10274000f1ff2700f0ff2f00aeff37000d48a30078
:10275000030032006000b8008c807000a9ff3700d1
:102760000748a3000400320001f827000000200001
:102770008c807000a3ff3700930007000004fd0069
:102780008104fd00020578008f0007000802be00ea
:102790008a01780059ff37000160a0001202200072
:1027a00072de880097ff37000100e000120032005f
:1027b0000500e00010003200889fbe008a9fbe0026
:1027c0008c9fbe000006eb0001f8a300030032005e
:1027d00060001000e08018000cf0a00005f8a300d5
:1027e0000300320060021200e0821a000cf0a20026
:1027f0008005eb0041ff37006000b80002000500d3
:102800000478a300040032000578a300030032001e
:102810000168a30001003a000200be000160a000b0
:1028200000000600889fbe008a9fbe000004be0014
:102830000405be00030141000201e8008000eb0036
:102840000a42b8000b43b8008682420060804b0009
:102850000a4bb8008682420007004800e08048002a
:102860000b4bb80006004000878048000103700051
:1028700002003a000001eb00120037000900e000fe
:1028800002003d000a0050008b8058000b00e00061
:1028900002003d00080050008980580085824200f7
:1028a00000004800818048008101df000300e00053
:1028b0000400320085824200000048008180480008
:1028c0000201e9004f05be004f04be0000000600f3
:1028d00001f8a3001d003a004709de00f40f2000b4
:1028e0000410e100260032000200e0002c0032005b
:1028f000f107b200c708dd004902de0084807000e5
:102900004700dd0001e0a000f207b1002e01070042
:10291000f207b00004042000840160004700de00dc
:10292000490add0004007000c708de000300e00073
:102930000200320061004000e0804800f107b20070
:102940004711dd008280700000000600f4ff2700c0
:10295000048260008002720001003a00000006005c
:1029600006f827000620e10012003500810263000e
:1029700006826a00040270000e0032000600370072
:1029800004f827000482680003003a0004002000d5
:1029900000026a000b0032000160a0000000060087
:1029a0000082700001003a000000060006000700e7
:1029b000d6ff37001202200072de8800f0ff2f00e1
:1029c000f1ff2700000006004f0ade004709de0085
:1029d000f107b200f20fb2000b003200f207b100b3
:1029e0000170a000c708dd00c901de00838070000f
:1029f0004700dd000400a600000006006000100093
:102a0000e080180000000600810f700001003a000d
:102a1000000006008182cf000500e00010003e00ab
:102a20008082cf00ee8242007028e100040039006d
:102a300007003e00800078000000eb000e00370029
:102a4000708312008600de000500dd000a003700fa
:102a5000708352008600dd000000eb0006003700a6
:102a6000e28252008508dd00708312000603de005a
:102a7000868070000500dd007507b0000501ea00e2
:102a80000400a6000000060060001000e0801800ae
:102a9000000006000100e000260032006101110084
:102aa0007810e10023003c006022b8007010e100c3
:102ab0000400350080027800010078008000eb00ff
:102ac000700151000200e0000900340070031100a1
:102ad000062add00822ade008603dd00878272007e
:102ae0000200de00860bdd00070070008208de00b9
:102af00084817100f4ff27000482620084817100e8
:102b000004002800848262006102600005f0a600d3
:102b10000000060004827100070032000000e80097
:102b2000e0804800000006000002be006000b8001f
:102b3000efff37006000b8000000060060001000e2
:102b4000e08018000200370060021200e0821a00e4
:102b50000100e0003f0032000500e00039003200d3
:102b6000889fbe008a9fbe008203780083045100c4
:102b700004003d000002fd008102fd008904ea001e
:102b80008303780001017800800078000000eb00ea
:102b900005037800840278000002eb000605690056
:102ba000070035000281d1008180d3000080d3006e
:102bb0000683d1008582d3000482d3008703e80016
:102bc0007048e100060035007f48e10029003c0024
:102bd00005027800860278004fb3de00f0845400ce
:102be0000900e000080032000922de0070851400b0
:102bf0008a2ddd000b027200892ade008a35dd0095
:102c00008b82720009b3de0004004000858048001a
:102c10000601490081fc0700838353000200e000a5
:102c2000090032000b0028000b10e1000c003200fc
:102c30000100780082007800070178004f05be008f
:102c40004f04be00000006006000b8000001eb0069
:102c5000faff37000400be00030178000000060000
:102c60000100e000f2ff3a0002002c008703e800b8
:102c7000efff3700f9012000d5ff37008101700018
:102c8000270032008002eb0001f8a30003003200ad
:102c900060001000e080180015002000f4072000fc
:102ca0000202420020003400f70320008703600086
:102cb00006042000000363000208200000016100f8
:102cc0004700de00c909dd0000807100c708de0092
:102cd0000600e000080032008703710006003200a1
:102ce0001000b0000180b0000188a3000200320093
:102cf000c108de000402e800f107b200f30f200073
:102d00000320e10003003d004722dd008100720046
:102d10002900370001f827000000eb0026003700eb
:102d20006000b80000000600680212007f20e10089
:102d3000020034006000b8001f0037006011b800c6
:102d40007020e10004003500800178000100780067
:102d50008000eb00700252000400e0000900340023
:102d6000f00312000719dd008419de000703dd00ff
:102d7000868171000400de00070bdd000600700094
:102d80008408de00f7ff2700838363008703710058
:102d90000600280003036300070032000700e0007c
:102da00003003a00610160000281730002003200fa
:102db0001000b0000180b0000500a6000000060071
:102dc00001f0a000000006008103700068003200de
:102dd000889fbe008a9fbe008c9fbe003400f80012
:102de00008002000a80188000208a30003003200a8
:102df0000000d0008180d2000201e900810178004a
:102e0000800278000002eb00821f78004a1cde007e
:102e10000801b10049b52b0069417c000281fb002b
:102e20000214b8004644dd000340e1000100360012
:102e30000201e9004111dd001200b3000214b800e4
:102e40004444dd000340e100010036000201e900d6
:102e50004111dd001200b3000214b8004244dd004d
:102e60000340e100010036000201e9004111dd00ec
:102e70001200b3000214b8000340e1000100360064
:102e80000201e9000214b800088651004763dd0022
:102e9000492cde0008037300820478004834de0009
:102ea0000940e1002e003100110009000983d8001b
:102eb0004811dd00000171000214b8000006eb00ab
:102ec0008406780008855200898559000400310085
:102ed0000201e9000214b8000885520089855900f2
:102ee000820478000b04d1008a83d3000d83d300c1
:102ef0000938e1001c0031001100090049bbd8006d
:102f00008002eb000003b8000204b800080444008b
:102f100089844c00e0824a008703440060824c00b0
:102f2000e0814a000603560087835e0004025d00cc
:102f300083815d00010031000000e9008200d100c2
:102f40000080d3004f0178004191de003400f90089
:102f50004f06be004f05be004f04be000000060035
:102f6000f00f2000d2ff3700f0ff2f00e4ff370002
:102f7000020005003400f80003002000a3018800cf
:102f8000030028000382600001f0a10092212700c5
:102f900013cb230002015000838158000d00310043
:102fa00002002000037823000201500083815800b2
:102fb000220039008480700083fe07005300200047
:102fc00004b02b00e5fa07002cff07003400f900dd
:102fd0000000060072212700132b240004f8a30030
:102fe00002003200421b2f00f32c2400000151008c
:102ff00081815900060039008480700072fe07004c
:103000002a0007001dff07003400f9000000060039
:103010008480700043f907000758a30016003200af
:103020000718a3000e003a006000b800220220003a
:1030300072de88003400f900000006008480700011
:1030400061fe0700040020000500240003002000aa
:10305000bffe070009ff07003400f900000006006a
:103060000000200001f827002202200072de880004
:103070003400f900000006000778a30005003200c4
:103080000160a0001202200072de88003400f90006
:10309000000006000000200001f8270004f0a7004f
:1030a0006000b8003400f90000000600889fbe00f0
:1030b0008a9fbe008c9fbe000005be0002047800ff
:1030c00044d9210055c5250043002000d5fd070047
:1030d000e2000700809fbe003c0007000006be0023
:1030e000820478000800e00029003500b4bf200009
:1030f000958b2500b3ff2f000a03be001afc0700c2
:103100000003be00020478000c00be000901780034
:10311000a4e62d0035472700c3fd2f0012fc070051
:103120000100e00025003200f00341001e003500e0
:103130005300200004b02b00330107004f02be00f3
:103140006f0462008004eb000803520089835a0078
:103150004435de004c3edd000a057600c4bdde00cd
:103160000a0141004cb12b004245dd000c06450030
:103170003c027800bc0278008001eb00a9fd07004a
:103180004f06be004f05be004f04be000000060003
:10319000b4bf2000958b2500b3ff2f000a03be00ab
:1031a000f1fb0700deff37000400200005002400cb
:1031b0000300200066fe0700e0ff3700000020004b
:1031c0000100240002002000dcff37000003eb00b8
:1031d0008101df008301ea006f18e1000f00320077
:1031e0000300e000060032008308dd007082110059
:1031f0008402de00858070000300dd0003034300cd
:103200000100e00014003200040028000408e1007e
:10321000130032007e011300000006008100d1007f
:103220008080d3004f00dd00f60020008101df0028
:103230008301ea006f18e100e9ff3a008100d10044
:103240008080d3000000eb00e60120008101df0058
:103250008301ea00e2ff37006000b80002000500c9
:103260000000e000ebff3a0001002c000603e9003b
:10327000e8ff37000003be00d4f507006220e1003c
:10328000020032000600be0005000500e507b1009f
:10329000f107b20004f023008480700007f0a7005b
:1032a00001f0a00024000500889fbe008a9fbe0098
:1032b0000003be00c5f50700850578008281520035
:1032c000020020006220e10004003a00f307b10090
:1032d000040035007718e100040035000600be0048
:1032e000140037006000b8000f003700f50f200011
:1032f000faff2f008502d1000a85d3008301e9007f
:10330000fcff3b008184620000046500890f7400ab
:10331000f2ff32008582ea000a85ea0081846200b9
:103320000004650083f5070007f0a70001f0a00086
:103330000081eb000200e0004f05be004f04be001c
:103340000000060014002000e00037000003be006b
:103350009ef507006220e100020032000600be0078
:103360000000060085024100e30f20000328e10071
:1033700005003c00a3fe2f000328e10007003d00ec
:103380000500200001003700f50f2000200220007a
:1033900070de88006000b8000800370013002000cd
:1033a0008381520005003d008100d1000080d300e0
:1033b0008301e800fcff3a0005002000c72add0079
:1033c000f107b2008580700007f0a70001f0a000af
:1033d00000000600889fbe008a9fbe008c9fbe0032
:1033e0000404b8000506b8008904460060854e0054
:1033f0000606b8000a054600e0854e000706b8003c
:103400008b054600040eb800890446000a854e006c
:10341000e0854d00050eb8000a0546008b854e007c
:10342000060eb8008b0546000416b8000a054600d3
:103430008b854e000516b8008b054600041eb800ab
:103440008b0546000800be000a01be004f06be0004
:103450004f05be004f04be00000006000100e00062
:10346000210032008201e8002b0035007e021100ad
:103470001e0034006011b8007020e1000400350027
:103480008001780001007800cf88de0070025200d1
:103490000400e0000700320003017800700312000e
:1034a0008601dd000400de00860bdd0007007000f1
:1034b0008488de00e1026000060028000303630048
:1034c000f7ff270083836300828373000600e00018
:1034d00005003200078172000200e00002003200a5
:1034e00061004000e0804800000006007e10e1001e
:1034f00001003a00000006000100e0000300350072
:10350000f1ff2700f0ff2f00000006000100280057
:1035100000002000000006006000b8000000060067
:103520000002eb008302df008502ea006f28e10061
:1035300023003a008301d1008281d3000181d300ae
:103540008080d3004f00dd00f40020008302df0004
:103550008502ea006f28e10019003a008301d100da
:103560008281d3000181d3008080d3000000eb0072
:10357000e40120008302df008502ea006f28e100f9
:103580000f003a008301d1008281d3000181d30072
:103590008000eb00d40220008302df008502ea00f5
:1035a0006f28e10006003a008301d1008281d30038
:1035b0000001eb00c40320008302df008502ea0063
:1035c0000500e0000c003200708312008519dd0058
:1035d0008613de00878171000511dd00860bde0099
:1035e000070171008508dd008603de00878070001a
:1035f0000500dd00050242000300e000010032008a
:103600000000060004000500e10241000200350050
:103610006e00070000000600e202410002003500d3
:103620000700070000000600e30241000200350029
:10363000410007000000060048f9070000000600ee
:103640006218e1001b003500889fbe008a9fbe0003
:103650008c9fbe008301e9000004be000205be008d
:10366000040678003c00be000801be000ffa070007
:103670003c004100bc8049008b05e900faff3c009a
:103680000103df008606ea00050034008d08dd0036
:10369000708216008402de00858070000d00dd005f
:1036a000060178004f06be004f05be004f04be0065
:1036b000000006000300e00002003a006000b800cd
:1036c000020005003400be0002000500889fbe0015
:1036d0008a9fbe00841f7800d1f407004f00780055
:1036e00011003300f0ff2f00838f6c0006003b00b9
:1036f000040565000a00a7000800370009f0a600cd
:103700001000200008003700820f5400838f5c00f7
:10371000030039001000200001003e0000002000de
:1037200009f0a7000000ea004f05be004f04be00ec
:103730000000e000000006006218e1001d003500f6
:10374000889fbe008a9fbe008c9fbe008301e90057
:103750000004be000205be00040678003c00be0066
:103760000801be00d1f907008381d1000281d30096
:103770003c004100bc8049008b05e900f8ff3c009b
:103780000103df008606ea00050034008d08dd0035
:10379000708216008402de00858070000d00dd005e
:1037a000060178004f06be004f05be004f04be0064
:1037b000000006000300e00002003a006000b800cc
:1037c000020005003400be00020005006218e1009e
:1037d0001e003500889fbe008a9fbe008c9fbe00e1
:1037e0008301e9000004be000205be000406780063
:1037f0003c00be000801be00acf907008100d0000b
:103800000281d2008381d2003c004100bc8049008b
:103810008b05e900f7ff3c000103df008606ea00a4
:10382000050034008d08dd00708216008402de0081
:10383000858070000d00dd00060178004f06be0097
:103840004f05be004f04be00000006000300e0006c
:1038500002003a006000b800020005003400be001b
:1038600002000500e4e12100e4874700f5f0800054
:10387000889fbe008a9fbe008c9fbe008e1f78006e
:10388000e08f52000b003a0024029800e40242004c
:1038900054f18800f5f0880065f18800a44290009a
:1038a0000504a00025429800e44290000504a00011
:1038b0006542980067044000a4e321002500200031
:1038c0004244de00a90322004244dd008484540007
:1038d00005074400110009008504d800dc0322001c
:1038e00052f180000406560080bf9f000e0747007b
:1038f0000003eb00e4054400080646000200370020
:10390000160020000d017800224290006102620042
:10391000020032000a003700150978009202780090
:103920002542900061026200fbff32000802410064
:10393000848f520002003900e00f54003f003d0028
:10394000920678000d00a100828f5600edff3e0028
:10395000e10f5300eaff3a000fba9700840f5400ba
:1039600002003600890f540010003900614ab90086
:10397000b0ff2f00010020006143b8000402500096
:1039800085825800840f5300858f5b00020035004c
:103990000b05780006003700110009000986d800e1
:1039a0000982b90004057800010037000e0578008f
:1039b0000a00780011f30700e10f400005003a000b
:1039c0000b0578000b0078000cf30700e10f4000b6
:1039d0002b00320064f18000000a780064f180005e
:1039e00064034200a4429000860f5000020032009f
:1039f0000504a000010037000504a100254298003d
:103a000064055500e4e121000a0540000a08780039
:103a10006af18800040d780065f180000003eb0076
:103a2000254290000404a000a44298002042900087
:103a30000404a10024409800b2ff370054f188002c
:103a4000848f5200070036001403be008042eb0052
:103a500036f1880047f18800120a780054f180009e
:103a6000254298002242900057f180000404a000f3
:103a700007097800244198006400410001003700e4
:103a80000000eb004f0778004f06be004f05be0058
:103a90004f04be004f00b10000000600e00f5000d0
:103aa000080032006400500054f18000840f500080
:103ab0000100310050f18800204290000404a10070
:103ac0002440980000000600889fbe000004780093
:103ad0008a9fbe0081047800e08f540005003a0000
:103ae000e00f54003200320008007800ebff0700be
:103af00030003700e00f540004003a00090078005d
:103b000058ff0700800478002a0037006402540040
:103b10009405780068fa97006102620002003200a2
:103b200008007800ddff0700090078004dff07005e
:103b300080047800e08f54001e003200888f54000b
:103b40001b00320069bd97008885550009055500a6
:103b5000c2ddde0042d5de000a0178008b0f550081
:103b6000010036000b0178004211dd00880078006a
:103b70000900780013000700888f54000d00310001
:103b80004255dd000a854400880f550009003600c3
:103b90000804550034f1800045f1800042c4de0085
:103ba0004244dd0008844400048cbe00010037005c
:103bb00088047800090078004f05be004f04be005d
:103bc000000006000002780002003700315a780039
:103bd0000201e900e00f5100fcff3a00000006007e
:103be0000002780002003700015a78000201e90063
:103bf000e00f5100fcff3a00000006000c00fa0044
:103c0000889fbe00f4ff270000047800d4bf9f0007
:103c10008004eb0088bf9f0099bf9f00a8bf9f0052
:103c2000240c200078815700b4bf9f00cfb09700cc
:103c300070805700c40007000fba9700094a780047
:103c40000fba9700080052004f04be000080fa002f
:103c500000000600d4c6b3000800fa00889fbe002a
:103c60000084fb008a9fbe00844f50003400360061
:103c700009c821004b062000110009000b84d80060
:103c8000720040004300dd000080440081057800a0
:103c90006022b8000600200007fe2300aa002000d2
:103ca0005001be004000be00af0807000002be0089
:103cb000110009008a85d80080057800e985450053
:103cc000c35ddd008b8544000203be0084bf9f00fe
:103cd00095bf9f00a6bf9f00b7bf9f003b02be00dd
:103ce0002b03be000fb897009fb897002fb997001d
:103cf000bfb997009c0807000002be001100090030
:103d00000a84d800010478004344dd00888444001c
:103d10000203be0084bf9f0095bf9f00a6bf9f0007
:103d2000b7bf9f003902be002903be000fb897003d
:103d30009fb897002fb99700bfb997001d003700b3
:103d4000ea4f500013003600aa00200009c82100e5
:103d5000110009000a84d8000105780069044000b8
:103d60004355dd004344dd00088444008a84440058
:103d70006022b8000600200007fe23003800be00c5
:103d80002801be00780807003902be002903be00e2
:103d90000800370004c821004344dd000804420045
:103da0006022b8000600200007fe23003800be0095
:103db0002801be006c0807004f05be004f04be007e
:103dc0000080fa0000000600d4c6b3000800fa0024
:103dd000889fbe008a9fbe00e04f500022003d0039
:103de0000040ea000004fb00844f50000a00340049
:103df00044062000a9002000110009000404d80096
:103e00000ac82100110009008900d800e90040001b
:103e1000c308dd0020003700ea4f50000f003400d7
:103e2000a4002000110009000404d80004c82100e7
:103e3000690040004300dd0000004200430cdd004b
:103e4000080242005001be004000be005403be0004
:103e50004402be0044080700370037004344dd0039
:103e600004c82100310037000004fb00844f5000db
:103e70002300340044062000a9002000110009009e
:103e80000404d8000abd2100110009008900d800ef
:103e9000e9004000c308dd00810045008b092000d7
:103ea0008a8545003102be002103be003b00be00f2
:103eb0002b01be002c0807000002be001100090003
:103ec0000904d800010478004344dd0008054500da
:103ed0000203be0084bf9f0095bf9f00a6bf9f0046
:103ee000b7bf9f003a02be002a03be000fb897007a
:103ef0009fb897002fb99700bfb99700d5ff37003b
:103f0000ea4f500007003400a4002000110009000f
:103f10000404d80004bd2100690040004300dd0016
:103f2000c5ff37004344dd0004bd21000804420002
:103f30003800be002801be004f05be004f04be0081
:103f40000080fa0000000600ef05b000889fbe0068
:103f50008a9fbe008c9fbe00000678008e1f7800ee
:103f60000007eb00e19f9f0082af9f006000b80058
:103f70006011b80080a79f0091a79f00a2a79f0093
:103f8000b3a79f00d9053700ef98970054c2b3003c
:103f90008100e800e19f9f00844f500006003a0036
:103fa000810278008006eb0007c3b30000c2b300b3
:103fb000b1c2b3000e0037003c0290000404b2000e
:103fc000040032001c027800004a7800040ee80069
:103fd000050037000000fb008c007800cf050700cb
:103fe000e10f4000c10532000e07e800bf053700b1
:103ff00005037800d2c2b30035427800824f5200e8
:104000000900320005003c00804f520008003200d9
:10401000814f52000c003a0007003700874f5200d2
:1040200009003a00060037000d30a000f0ff37000d
:104030000d00a000eeff37000d10a000ecff3700d0
:104040000d20a000eaff3700e28266000100320086
:104050000d00a100e8826600010032000d20a100e1
:104060008402fb000503b100e98f52000d003e0001
:10407000860278008003eb003502fb006a3bb90042
:104080000403b100860342001502fb00050378001b
:104090000403b100e90f5200f7ff360097b79f0005
:1040a0000a0037008002eb0095b79f00a5c2b3005d
:1040b000854f520005003a008fab97000603e800d9
:1040c0004700780087af9f0090b79f00e4c2b3001d
:1040d000964f120017003a000de0a0006442520013
:1040e000d64f120003003200060278008003eb0076
:1040f000090037000fa997000603e800c201780005
:1041000082af9f00d3af9f00c7c6b3000d0037003a
:104110006a3bb9008683420004037800b402fb00c6
:104120000503b100e98f5200f9ff3600d7af9f00b9
:10413000f5ff37000002eb000dc0a000d4af9f00d8
:10414000f1ff3700860278003542780005037800d9
:10415000874f52002d003200e59f9f00c5c6b30077
:10416000854f520014003c00e8c25200854f5200b7
:104170002400320009003c00ecc25200854f52007e
:104180002e003200ebc24200854f52009a003200ee
:10419000e04f52005a053200b800370065c6b30040
:1041a000854f52001f003200e3c24200854f52008b
:1041b000b2003a001300370035c7b300854f5200f4
:1041c0002200320007003c00e4c25200854f52003a
:1041d000170032008542e800854f5200a7003a00e0
:1041e0001600370055c7b300854f5200a8003200b3
:1041f000e3c24200854f5200a0003a00e4579f00fe
:1042000010003700e4579f00a3003700f0826600db
:104210000401200001003200040028008d06720015
:10422000c8ff3700e4579f000da0a0009a00370098
:10423000e4579f000d60a00097003700e4579f00ef
:104240000d50a0000d70a000930037008faa9700ba
:10425000e4579f004502780085af9f000404780072
:10426000e00f520001003a0028df210088027800a8
:104270000002eb00010037000402e80065437a0009
:10428000e04f5300fcff3a00840478005fab9700d6
:10429000e00f530003003200890f5300010031008a
:1042a000860478000002eb009fb39700898f5300cb
:1042b0000100360009825300e8866600ddaf9f00ea
:1042c0000d007800e00f50002c003a0084067800c2
:1042d00004c2b30010003700bc0290000504b20015
:1042e000040032009c027800844a7800050ee80041
:1042f0000700370084bf9f008c0078000002200078
:10430000060507000fba9700e10f400001003200d8
:104310000e07e8008d06e900e08f5600eeff3a0038
:104320000082eb00150037003c0290000404b2004c
:1043300009003200080278001c037800b4427800bb
:10434000054b780004047800060ee800e0cf520028
:1043500008003a000a003700080278008c00780054
:104360003400fb0004047800ec040700e10f400077
:10437000030032000e07e8000100370084067800d1
:10438000090278008404e900e00f5200e6ff3a00d9
:104390000d027800dfa89700e08f5000d3043200b0
:1043a0008406780004c2b30010003700bc029000fd
:1043b0000504b200040032009c027800844a7800b0
:1043c000050ee8000700370084bf9f008c007800ce
:1043d00000022000d10407000fba9700e10f40004f
:1043e000010032000e07e8008d06e900e08f56005c
:1043f000eeff3a00bd0437000fa99700f082660077
:104400004202780082af9f0004007800cf80de0077
:10441000010178008201780090af9f00a1af9f005a
:10442000b2af9f00c3af9f004800de00480add0026
:1044300000007200e0579f00e08f52000900320038
:10444000e04f500007003200e14f4000050032000d
:10445000afd29700f0579f00855f9f002900200092
:10446000030037002fd3970019002000f6579f0054
:1044700078f92f000f04440084ff3700e4579f00b1
:1044800068f92f000f044400190020007fff370057
:10449000e4579f000d0cb3000470200004826600f6
:1044a000650232000400210004826600020032002e
:1044b00067002000d7af9f007082660009003200bd
:1044c0000faa97004401be004400be0084af9f00c5
:1044d00090af9f00a1af9f00b2af9f00c3af9f00fe
:1044e0000a0037008faa97004500be0085af9f00e5
:1044f000210507000002be000203be0094af9f002a
:10450000a5af9f00b6af9f00c7af9f006022b80065
:104510006033b8001fa89700afa897003fa9970085
:10452000cfa9970005050700e00f50000a003d00e5
:104530001fa89700afa897003fa99700cfa99700a1
:1045400003f0a20090af9f00a1af9f00b2af9f0009
:10455000c3af9f003d00b3000002eb001fa897000f
:10456000afa897003fa99700cfa99700d48f9f00cd
:104570006022b8006033b800fa040700e00f500072
:1045800034003200a4f92f000f0242001fa8970048
:10459000afa897003fa99700cfa9970093070700fe
:1045a0005f889700a40020000000e9006300b900c4
:1045b000110009000400d800d08f9f00e00f5000c8
:1045c00002003d000000e900d08f9f005f8c970043
:1045d0000840ea00fcfd07001faa9700afaa970059
:1045e0003fab9700cfab97005f0607000002be000d
:1045f0000203be0084a79f0095a79f00a6a79f0067
:10460000b7a79f006022b8000600200007ff230024
:10461000ca040700e00f500002003d000804e90052
:104620000b0037006022b80006002000470224007b
:104630000fa097009fa097002fa19700bfa1970000
:10464000c3040700e00f5000020035000804e80032
:10465000d88f9f00dfaa9700f88f52000f003c0010
:10466000054078007bfd07000002be000203be008b
:104670001fa89700afa897003fa99700cfa9970060
:104680003f0507000002be000203be0094af9f007a
:10469000a5af9f00b6af9f00c7af9f005f8c97008c
:1046a000e90f540015003c006022b8006033b800e8
:1046b0001fa89700afa897003fa99700cfa9970020
:1046c000a8040700e00f5000320032001fa8970036
:1046d000afa897003fa99700cfa99700c50407008e
:1046e000e00f5000e08f5800e00f5900e08f5900b4
:1046f00028003a00e10f5400260034000400200096
:1047000005002e00b6e02200170124000fa097003c
:104710009fa097002fa19700bfa1970087040700d3
:10472000e00f500002003d00730454000100370008
:1047300072045400d88f9f002f589700a2fd0700e5
:104740000002be000203be001fa89700afa897009a
:104750003fa99700cfa9970084a79f0095a79f0026
:10476000a6a79f00b7a79f0050050700a104070058
:104770000205be000004be006000b8006011b80071
:1047800090af9f00a1af9f00b2af9f00c3af9f004b
:10479000170037001fa89700afa897003fa9970000
:1047a000cfa99700930407000205be000004be00d5
:1047b000c10407000002be000203be001fa897004c
:1047c000afa897003fa99700cfa99700eb04070077
:1047d0000002be000203be0094af9f00a5af9f0081
:1047e000b6af9f00c7af9f000002eb00d48f9f00c1
:1047f00081d3210010c0b300080037003102be0091
:104800003103be000440e10005c8e10006d0e1002c
:1048100007d8e100030039000040e800f44f5000e1
:10482000f6ff3a009fb297005f8a97005fab970050
:1048300004825200e0579f00860252000002fb00f3
:104840000482520094b79f00e00f53000200320030
:104850000402e90094b79f006382660003003200ff
:104860009fb397008703e90097b79f0064826600b3
:104870004500320062826600e1826600e00f52006d
:10488000110032003c0290000404b2000800320023
:104890001c037800b4c2b300e08f52000100320064
:1048a00004c2e800044b7800060ee800150037004b
:1048b000b0022000e08f5200010032000080e800ca
:1048c0008c0078000c003700e08f5200200032008e
:1048d0003c0290000404b200050032009c02780003
:1048e00004c2b300844a7800050ee80005003700d2
:1048f0008c0078000002200088030700e10f4000d0
:10490000130032000e07e800110037003c0290004f
:104910000404b200040032001c027800054a78004a
:10492000040ee80007003700f5b79f008c00780000
:104930000003200079030700ffb29700e10f400059
:10494000010032000e07e8008904e9000600370084
:10495000c8a79f00d9a79f00eaa79f00fba79f00b9
:104960009fb4970005c3b300e08f5400e7ff3c00fd
:1049700099b79f004fa49700dfa497006fa59700f9
:10498000ffa597006e003700688266001f003a009e
:10499000110037003c0290000404b2000400320011
:1049a0001c027800054a7800040ee8000700370072
:1049b000f5b79f008c007800000220005703070025
:1049c000ffb29700e10f4000010032000e07e8003f
:1049d0008904e90006003700c8a79f00d9a79f00f7
:1049e000eaa79f00fba79f009fb4970005c2b300f2
:1049f000e08f5400e7ff3c0099b79f004fa4970059
:104a0000dfa497006fa59700ffa59700628266005c
:104a1000e1826600e00f5200110032003c0290007b
:104a20000404b200080032001c037800b4c2b300d2
:104a3000e08f52000100320004c2e800044b78000d
:104a4000060ee8003d003700b0022000e08f520063
:104a5000010032000080e8008c007800340037004c
:104a6000e08f5200360032003c0290000404b20095
:104a7000050032009c02780004c2b300844a78002a
:104a8000050ee8002d0037008c00780000022000a1
:104a9000270037003c0290008502fb000404b200ae
:104aa0001300320002d32100c32add008502410039
:104ab0009c0078005503be004502be00c1a79f00c0
:104ac0000800be000a01be007bf10700a400200020
:104ad000050020006033b8007ef107004fa2970068
:104ae00005c3b300054a4000040ee8001300370078
:104af00006d32100c32add00850243000800be0062
:104b00000a01be005503be004502be006af107005f
:104b1000a4002000050020006033b8006df10700fc
:104b20008c0078000403200000024200040078009a
:104b3000fa020700e10f4000010032000e07e80012
:104b40006f5297008442e900e5579f00e04f520002
:104b5000d0ff3a00110037003c0290000404b2007c
:104b6000040032001c027800084a7800040ee800b5
:104b7000050037008c00780000032000e7020700e2
:104b8000e10f4000010032000e07e8005f8a970045
:104b90000402e900d48f9f000100370008c3b3006e
:104ba0005f8a9700e00f5200ebff3c00dfab9700fd
:104bb000f28f53000300340024c1b300e4579f0078
:104bc000020037002fd89700e0579f006f529700e0
:104bd000dfa897000403fb0006835000c6a79f00d0
:104be000e04f52000e0032003c0290000404b2007c
:104bf000050032001c027800e5c2b300054a7800c7
:104c0000040ee800050037008c007800e002200068
:104c1000c2020700e10f4000010032000e07e80069
:104c20006f50970068fc07000002be000203be0040
:104c30001fa89700afa897003fa99700cfa997009a
:104c4000c90407006b030700350037003c029000e1
:104c50008502fb000404b2001300320003d32100dc
:104c6000c32add00858241001c0178005503be0087
:104c70004502be00d2af9f000800be000a01be0080
:104c80000df10700a4002000050020006033b800eb
:104c900010f107005faa970005c3b300054a400062
:104ca000040ee8001300370006d32100c32add00fc
:104cb000850243000800be000a01be005503be0085
:104cc0004502be00fcf00700a40020000500200003
:104cd0006033b800fff007008c0078000403200068
:104ce00000024200040078008c020700e10f40003f
:104cf000010032000e07e800ef53970000d32100b7
:104d00000702fb004322dd00040240000800be0051
:104d10000a01be005403be004402be00edf00700cd
:104d20006f5297000205be000004be008442e900f5
:104d3000e5579f00e04f5200c4ff3a0011003700d2
:104d4000bc0290000504b200040032009c0278000e
:104d5000844a7800050ee8000700370084bf9f00f2
:104d60008c007800000320006c0207000fba970047
:104d7000e10f4000010032000e07e8008904e9005d
:104d800006003700cfa49700d0af9f00e1af9f008f
:104d9000f2af9f0083b79f0004c3b300e08f5400bd
:104da000e7ff3a005fac9700efac97007fad97004c
:104db0008fb59700e88666004c0232009fb09700de
:104dc000e08f5000490234000802be000a03be0012
:104dd0000dc2b300810478003c0090000004b200d2
:104de000040032001c0078000d487800000ee80036
:104df0000d00370084bf9f00f5b79f00d6b79f0016
:104e0000e7b79f008c0078000002200043020700f3
:104e10000fba9700ffb297005fb39700efb3970008
:104e2000e10f4000010032000e07e8008904e900ac
:104e3000e9ff3a002d0237008d027800050cb20020
:104e40002a003a00e08f560005003d000fa99700a8
:104e50004205be004204be0082af9f00160037002c
:104e6000708266000e0032000fab97004602be0053
:104e7000c4979f00d5979f0086af9f0016029000b1
:104e80004fa2de00e4979f00f4979f004f94970095
:104e9000df9497006f959700ff9597000600370005
:104ea0000fa897004004780080af9f00cfc4de00b9
:104eb000090578008a057800e00f5400e08f5c0057
:104ec000e00f5d00e08f5d0023003d006022b80030
:104ed0006033b8003d00b3000804520089845a00d2
:104ee0000a055b008b855b001b003700e08f5600d6
:104ef00005003d008fa897004105be004104be009b
:104f000081af9f0014003700f08266000c00320071
:104f10008faa97004501be00a4979f0082979f002b
:104f200093979f00b4979f0085af9f000f949700c1
:104f30009f9497002f959700bf9597000600370024
:104f40008fab97004704780087af9f0009002000cf
:104f50000a0020000b0020005fa89700e00f50001f
:104f600009003a0011002000d1af9f00e00f54006b
:104f7000e08f5c00e00f5d00e08f5d00020032001a
:104f80000001eb00d2af9f008d01780004042000e7
:104f9000030cb20093af9f00848f51002c003200ad
:104fa00003003c00e08f5100080032003c00370055
:104fb000040820009faa9700848f5200100032003e
:104fc000040c2000848f520035003a0081d3210068
:104fd00010c0b3003102be003103be000440e10046
:104fe00005c8e10006d0e10007d8e1002b00390038
:104ff0000040e800f44f5000f6ff3a002700370069
:1050000010c0b30004012000050020006033b80088
:105010000440e10005c8e10006d0e10007d8e10046
:105020001e003900410020000402d0008582d20019
:105030000683d2008783d2008100e900faff3a009c
:105040000040e800f04f5000f1ff3a001300370035
:1050500010c0b30084002000050020006033b800b9
:105060000440e10005c8e10006d0e10007d8e100f6
:105070000a003900320020000402d0008582d200ec
:105080000683d2008783d2000201e900faff3a00ca
:105090000040e800f54f5000f1ff3a00e0579f0054
:1050a000ef519700dfaa97000302fb00850f520023
:1050b00002003d00e5579f00040037005fab9700fa
:1050c000840f530001003d00d4af9f009fb39700b1
:1050d000e08f530004003200638266000200320059
:1050e0008703e90097b79f0004002400048266004c
:1050f000090032001fb09700dfa89700810f500011
:10510000030034000100500090b79f0002003700f8
:105110000001eb0092b79f00ef5197008002eb0077
:105120000302fb00c5a79f001fb39700840f530025
:105130000200340004025300c4a79f00648266008a
:1051400045003200e282660061826600e08f520014
:1051500011003200bc0290000504b20008003200c9
:105160009c027800b6c2b300e00f5200010032008a
:1051700006c3e800864a7800050ee80015003700ef
:10518000b0022000e00f5200010032000080e80071
:105190008c0078000c003700e00f52000e00320047
:1051a0003c0290000404b200050032001c027800aa
:1051b00005c2b300054a7800040ee8000500370078
:1051c0008c0078000002200054010700e10f40002d
:1051d000010032000e07e800cfa39700e08f5300d4
:1051e0006300320098b79f00a9b79f00bab79f002d
:1051f000cbb79f0004c3b30087047800bc029000c3
:105200000504b200040032009c027800844a780051
:10521000050ee8000700370084bf9f008c0078006f
:10522000000320003d0107000fba9700e10f400086
:10523000010032000e07e8008904e900efff3a00a0
:10524000c9a79f001fb49700afb497003fb5970060
:10525000cfb5970046003700cfa09700e08f5000f1
:105260001e003200688266001c003a0098b79f005a
:10527000a9b79f00bab79f00cbb79f00cfa49700f4
:1052800004c2b300bc0290000504b2000400320066
:105290009c027800844a7800050ee8000700370079
:1052a00084bf9f008c007800000220001b010700d3
:1052b0000fba9700e10f4000010032000e07e8002e
:1052c0008904e900efff3a00c9a79f001fb49700c7
:1052d000afb497003fb59700cfb59700e282660064
:1052e00061826600e08f520011003200bc02900023
:1052f0000504b200080032009c027800b6c2b30078
:10530000e00f52000100320006c3e800864a780030
:10531000050ee80015003700b0022000e00f520033
:10532000010032000080e8008c0078000c0037009b
:10533000e00f52000e0032003c0290000404b20064
:10534000050032001c02780005c2b300054a78004f
:10535000040ee800050037008c00780000022000f1
:10536000ee000700e10f4000010032000e07e800e8
:10537000dfa8970005d321000102e90098b79f003c
:10538000a9b79f00bab79f00cbb79f004221dd00ad
:105390006323b900929f9f004322dd0086017800bd
:1053a00085024200839f9f00f59f9f0070826600e8
:1053b0008d027800f48f9f000502b200e58f9f00f8
:1053c000a3003700dfa897001fa997008100e9001c
:1053d00003042000d1af9f00830f510073003200ff
:1053e00003003c00e00f5100080032007e0037004f
:1053f000040820009faa9700848f520056003200b4
:10540000040c2000848f520077003a00e08f560091
:105410001f003d007f9b97001fb09700afb0970023
:105420003fb19700cfb197003604be002605be00fd
:105430000802be000a03be001fef07000802be00fc
:105440000a03be00e0579f000000fb00cf80de0093
:10545000010178008201780080ef07001fb29700f9
:10546000afb297003fb39700cfb39700000252004e
:1054700081825a0002035b0083835b0094b79f0024
:10548000a5b79f00b6b79f00c7b79f002e00370093
:10549000ff8a9700e08f5200220032007f9b970026
:1054a0001fb29700afb297003604be002605be00bb
:1054b0000400be0084bf9f00f5b79f000801be0036
:1054c000e9f107000801be00e0579f000000fb0063
:1054d000cf80de00a30107000fba9700ffb297004c
:1054e0000001520081815a000002eb00a29f9f0040
:1054f000b39f9f00d49f9f008001eb00c39f9f003c
:105500002f989700bf9897004f999700df999700c1
:1055100090b79f00a1b79f00b2b79f00c3b79f008d
:1055200009003700ff9897001fb19700110278001b
:10553000110009000481d800a40020001100090016
:105540000480d800e1579f00ef5197000343b0005b
:10555000e3579f002400370014de2100ef8a9700f4
:10556000e08f52000100320004dd21001fb09700df
:10557000afb097003fb19700cfb197001f9b970046
:105580000603e900050033008301d1000281d30046
:105590008180d3000080d300f9ff37006f006000e6
:1055a00064407800e0579f000f0037001fb297005b
:1055b000afb297003fb39700cfb397000f98970013
:1055c0000000e900050033008703d1000683d30003
:1055d0008582d3000482d300f9ff3700674262005e
:1055e0000443b000e4579f003c0290000404b20062
:1055f000070032009c0278006f529700844a7800be
:10560000050ee800e04f520007003a00070037009f
:10561000ef5097000100fb008c0078003f0007006e
:10562000e10f4000010032000e07e8001f999700cb
:105630008f9997007f9a970064015100e381510090
:1056400068025200929f9f00839f9f00f49f9f00db
:10565000dfaa9700e08f52005aff3a001fb497006c
:10566000afb497003fb59700cfb59700e8866600c6
:105670001e0032004fa39700e00f53001b003400c0
:105680000802be000a03be00cfa497000dc2b300fb
:105690003c0090000004b200040032001c007800be
:1056a0000d487800000ee8000d00370084bf9f0011
:1056b000f5b79f00d6b79f00e7b79f008c00780032
:1056c00000022000150007000fba9700ffb29700f4
:1056d0005fb39700efb39700e10f40000100320085
:1056e0000e07e8008904e900e9ff3a00ef9b970004
:1056f00017407800e0579f00e04f500022fa3a0030
:105700000e0078004f0778004f06be004f05be0020
:105710004f04be00ef05b10000000600889fbe00e8
:10572000010478008084eb0038029000e2026200fd
:105730003b00320004037800980290000620b2007b
:1057400002003a00e08f520035003a000490a000b9
:105750008004780034049800f90fb200e08f520002
:1057600002003a00a8029000050c7800ea8f54006d
:1057700005003a000408b20003003a0088007800ef
:10578000d0002000e5ff070018029000d80290002a
:10579000850f52000b0032000402e80015c0b30070
:1057a0001404980018027800094a7800040ce800f4
:1057b00004e32100054a7800ea8f540018003a00fb
:1057c00005003700094078008800780017000700be
:1057d0008004780012003700380290000410b200f4
:1057e0000f00320018019000a800900048009000bf
:1057f00052eb070018029000840f500004003200a2
:10580000380290000403b300340498008084eb0055
:105810000002eb001404980028029000040c7800a9
:10582000090078004f04be00000006000200fa00e4
:10583000889fbe0001047800a0ff9f0038029000fe
:10584000840278000504b200020032000000fb0070
:1058500035003700e202620005003a000403b3009d
:1058600015049800340498000080eb002e003700e7
:10587000d8049000e08f540006003a001200200087
:10588000e6805700480090002ceb070019049800b0
:1058900023003700a8029000e08f520008003a0071
:1058a00045e321000430a00025049800050c780091
:1058b0003404980025002000550498001504980031
:1058c00018019000a8009000480090001beb070012
:1058d000280290008082eb0015049800affa970030
:1058e000054a7800040ce8002ffa9700ea4f5200ae
:1058f0000b003a00380290000410b2000800320099
:1059000018019000a8009000480090000beb0700e1
:105910000002eb00a802900014049800050c780027
:105920002ffa97000400fb004f04be000080fa002d
:105930000000060000c0da00000006008f1fd10042
:10594000040307008f87e9000000e0000000060064
:10595000809feb00ff0207008f87e9000000e00056
:1059600000000600801feb00fa0207008f87e900a5
:105970000000e000000006008103780013ec07003f
:105980000001be006000b8000478a30013003a00d4
:105990006220e10015003e000d0039008301d100b6
:1059a0000281d3008180d3008301d1000281d30022
:1059b0008180d3008301d1000281d3008180d30094
:1059c0000538b000c42add00f300b2008381720004
:1059d00007f0a70003f0a00000000600f3ff270077
:1059e000f2ff2f006110b900fbff370003ff270013
:1059f000f7ff37001400fa00889fbe008a9fbe00a0
:105a00008c9fbe000004be000205be006800470077
:105a10000a90be000890be00350307000070a70082
:105a20000bf0a1000bf8a30020003a009e099000a3
:105a30000e099000fe0090006e0090009e02900003
:105a40003443200084825200640332000a003c0088
:105a5000b4fc2f000428e100140034008301d100bd
:105a60000281d3008180d3000080d3008502e8004a
:105a7000faff3a0059033700b40020000428e1007f
:105a800007003c00000040008180480002014900fe
:105a9000838149008502e900faff3a004f0337008d
:105aa0000300280002002000010037006011b80048
:105ab0006000b80049033700889fbe000082700074
:105ac0000402710004827100240032003643200079
