:020000040000fa
:080000000002040000000000f2
:020000040000fa
:100008009a0200009a0200009a0200009a02000078
:100018009a0200009a0200009a0200009a02000068
:100028009a0200009a0200009a0200009a02000058
:100038009a0200009a0200009a0200009a02000048
:100048009a0200009a0200009a0200009a02000038
:100058009a0200009a0200009a0200009a02000028
:100068009a0200009a0200009a0200009a02000018
:100078009a0200009a0200009a0200009a02000008
:100088009a0200009a0200009a0200009a020000f8
:100098006c3b00009a0200009a0200009a020000dd
:1000a8009a0200009a0200009a0200009a020000d8
:1000b8009a0200009a0200009a0200009a020000c8
:1000c8009a0200009a0200009a0200009a020000b8
:1000d8009a0200009a0200009a0200009a020000a8
:1000e8009a0200009a0200009a0200009a02000098
:1000f800903c00009a0200009a0200009a02000058
:100108009a0200009a0200009a0200009a02000077
:100118009a0200009a0200009a0200009a02000067
:100128009a0200009a0200009a0200009a02000057
:100138009a0200009a0200009a0200009a02000047
:100148009a0200009a0200009a0200009a02000037
:100158009a0200009a0200009a0200009a02000027
:100168009a0200009a0200009a0200009a02000017
:100178009a0200009a0200009a0200009a02000007
:100188009a0200009a0200009a0200009a020000f7
:100198009a0200009a0200009a0200009a020000e7
:1001a8009a0200009a0200009a0200009a020000d7
:1001b8009a0200009a0200009a0200009a020000c7
:1001c8009a0200009a0200009a0200009a020000b7
:1001d8009a0200009a0200009a0200009a020000a7
:1001e8009a0200009a0200009a0200009a02000097
:0801f8009a0200009a020000c7
:020000040000fa
:100208009a0200009a0200009a0200009a02000076
:100218009a0200009a0200009a0200009a02000066
:100228009a0200009a0200009a0200009a02000056
:100238009a0200009a0200009a0200009a02000046
:100248009a0200009a0200009a0200009a02000036
:100258009a0200009a0200009a0200009a02000026
:100268009a0200009a0200009a0200009a02000016
:100278009a0200009a0200009a0200009a02000006
:100288009a0200009a0200009a0200009a020000f6
:100298006c3b00009a0200009a0200009a020000db
:1002a8009a0200009a0200009a0200009a020000d6
:1002b8009a0200009a0200009a0200009a020000c6
:1002c8009a0200009a0200009a0200009a020000b6
:1002d8009a0200009a0200009a0200009a020000a6
:1002e8009a0200009a0200009a0200009a02000096
:1002f800903c00009a0200009a0200009a02000056
:100308009a0200009a0200009a0200009a02000075
:100318009a0200009a0200009a0200009a02000065
:100328009a0200009a0200009a0200009a02000055
:100338009a0200009a0200009a0200009a02000045
:100348009a0200009a0200009a0200009a02000035
:100358009a0200009a0200009a0200009a02000025
:100368009a0200009a0200009a0200009a02000015
:100378009a0200009a0200009a0200009a02000005
:100388009a0200009a0200009a0200009a020000f5
:100398009a0200009a0200009a0200009a020000e5
:1003a8009a0200009a0200009a0200009a020000d5
:1003b8009a0200009a0200009a0200009a020000c5
:1003c8009a0200009a0200009a0200009a020000b5
:1003d8009a0200009a0200009a0200009a020000a5
:1003e8009a0200009a0200009a0200009a02000095
:0803f8009a0200009a020000c5
:020000040000fa
:100400000fed20000eff27000e0188000000000005
:10041000000020000000e000020032000001200087
:10042000200288000c000700408a23000100200001
:1004300011000700000020000000e0000200320070
:100440000000020000000000c83a020000000000a6
:100450000040da000000fe004440a9000015200022
:100460000000e0000300320000002000a00188002e
:100470004440a80000000600910188008000780038
:100480000000eb0015003700e280400032a0b4000d
:100490009101ba00e280400032a0b4009102ba009b
:1004a000e280400032a0b4000002eb00472bde00e7
:1004b000f507b200602ce10004003a000059eb009f
:1004c0008301e900fdff3e00040037006128e100e0
:1004d000010032000082eb00040007001101ba00a5
:1004e0000200e000e8ff3a00000006003159ba00bf
:1004f0008301e9000c0032002159ba008301e900b0
:10050000080032000400e00003003a00e2804000ee
:1005100032a0b400f5ff370011d9ba008301e90019
:10052000faff3a008100e800e180400032a0b40008
:10053000000006000040da000000fe000a00fa0099
:10054000e20f500022003e0074768000e10f52005e
:1005500006003200872320004623200024232000a9
:1005600005232000e08f530004003a00872220007a
:10057000462220002422200005222000000028001e
:100580001500600003003a00800b78000700280087
:10059000958a7300054020009482620001003a00b1
:1005a00014a0a000820278000600370094037800af
:1005b0000710b200fdff3200b103fb00070b78000b
:1005c0008502e900e08f5200f8ff3a00080037008a
:1005d00034002000c0bf9f00e2bf9f00b4bf9f0057
:1005e000d1bf9f006a8057007b0b07006fb997004f
:1005f000020078000080fa000000060003f0a2006c
:10060000889fbe008a9fbe008c1f780005010700ee
:100610000c0133006450e1004f0032006420e1001f
:100620005200320003826c0007003b000905d00035
:100630000306d000820f54000c065d000200390052
:100640000200320089017800030678008582550097
:1006500004003d000003fd008103fd008502ea0067
:100660008b854200840f720002003b006000100086
:10067000e08018006011b8000005eb007a28e10066
:100680000a00390006007800c75ddd00f707b200f8
:10069000878075002d003700828171000a01780083
:1006a000610560008180d1000080d3008502e900ef
:1006b000f9ff3b00060440008784480002003b002d
:1006c00060041400e0841c000988a30007003200c5
:1006d0008a81710082817100610164008904d10006
:1006e0000884d3008b05e800170037000978a300c1
:1006f00013003a000b00e000130034008b05e90002
:100700000804440089844c000a4474000978a3005a
:100710000d003a000b00e000070034008b05e900f3
:100720000804440089844c0001003a000b002000ba
:100730000978a300f7ff32000001eb000200370048
:10074000828171000a0178007b0007000cf0a7008d
:1007500001f0a000c40037006420e10002003a006c
:10076000838f6c00c40033000801be000200be008d
:10077000bd003700889fbe008a9fbe008c1f780096
:10078000a8000700af00330003866c006450e1004e
:100790002e0032006420e100330032006150e1009d
:1007a0002f0032006120e1003100320085855500c4
:1007b000eb07b00009002000080420000500370006
:1007c0000804440089844c000a00310006034300f9
:1007d00087834b000001530081815b00f8ff3300e9
:1007e0000203be000800a0000804440089844c00f5
:1007f000f6ff3900c639dd008301730001003200c5
:10080000130020008904d1000884d3000998a300b4
:10081000050032000800a7000300a0008904d100f1
:100820000884d3008b05e8008904d1000884d30034
:100830000001eb000281d2003f00070001f0a1009f
:100840000cf0a70001f0a000870037006420e10051
:10085000890032000801be000200be00f7ff370029
:100860006120e100840032006000b800f3ff37002f
:100870000000200001f82700f0ff3700839f680088
:100880000100e00002003d0060001000e080180060
:100890000300e00002003d0060011100e08119004a
:1008a0008f0107004f00e00002003b0060001000d5
:1008b000e0801800000006000001be0044000700b0
:1008c0000470a70003f0a10003f8a30013003a008e
:1008d0006509b10010003200090035006928e10007
:1008e0000200350001002800000005000000400063
:1008f000818048008502e900fcff3a000000060004
:10090000f88f4200050035008100d1000080d3003f
:100910008502e800fcff3a00000006008000eb00c2
:10092000000005004f89de00820178006002370078
:100930006011b8006e023700810020006180550010
:100940000b003d000b00200061fe2f000100e100c4
:100950001d00340082817100610164008904d100ae
:100960000884d3000000e800faff3a00710020007c
:1009700061006400030070000200600009003200a2
:1009800061044400e0844c000988a50005003200a1
:100990008b05e8006808e10002003a008904d100f4
:1009a0000884d300f20f20000258e10005003d004a
:1009b000c75ddd00f907b200898075000800780086
:1009c000000006000bf827008b00780000000500ef
:1009d000c70ade00f107b200f50fb20008003200ce
:1009e000e1cf4200020032000170a00024000500a7
:1009f000810f70000100320004080500440005006a
:100a0000810f700002003a00140005008502e90021
:100a10000000400081c04800fcff3b000170a000c6
:100a2000240005000004be00e9ff07000003be002b
:100a30000405be000200be00e5ff0700844f7500fc
:100a4000000006000200be006450e1000500360010
:100a50006420e100020036000968a30001003a00aa
:100a60000800be000160a0004f0678004f05be00e0
:100a70004f04be0000000600f0ff2f00f1ff27002a
:100a8000f9ff3700889fbe008a9fbe008c1f780048
:100a9000e4ff0700ebff330003866c006450e100c5
:100aa000240032006420e100270032006150e100a0
:100ab000220032006120e100210032008b854200db
:100ac000eb07b1000134b800003ab8000804420056
:100ad00089844a00013ab8000030b800888040009c
:100ae00009014a00040033000000400081804800f2
:100af000020149008b05e900c909dd00830170008e
:100b00000100320013002000c814de004814dd008c
:100b10004709de001200b200c808de000884700039
:100b200085ff070001f0a1000cf0a70001f0a00074
:100b3000cdff37006120e100cfff32000801be0089
:100b40000200be00f7ff37006150e100fcff3a00f1
:100b5000c9ff37000c00fa00889fbe008a9fbe00c4
:100b60008c9fbe00afff07000206be008405780020
:100b70000200be00020020008101070005003a00cb
:100b80008b02b300120020007d01070001003a0033
:100b9000f8856d000c01be00c60007000800be000d
:100ba0009b0032000b08a3009e003a000df0a70046
:100bb0000be0a00009f0a7000bf0a00009f0a100d5
:100bc0000801be00bb0007000bf0a6009500320034
:100bd00001003c000bd0a0008acf7500b2003300aa
:100be0006000b8006250e10099003900a1003e00a9
:100bf0000b28a300a2003a000bf8a3000600320065
:100c00000b58a300a70032000801be00a90007008e
:100c10000800be00940032000800be00e900070092
:100c20000004be00050578000bf0a7000b30a600fd
:100c30000bf0a1005b079800324f200053f3230014
:100c40007601070005003d000800be0012002000ec
:100c5000d60107000004be000a05e9004a07980013
:100c60006150b9002fff0700008fbe000c01be00cd
:100c700084ff07006d010700300798000100e000c5
:100c800002003d0060001000e0801800f2ff270025
:100c9000820f5000e08f580064003e000c00be0040
:100ca0006201070020079800f2072000820f500021
:100cb000e08f580005003c0012f82f00f3ff2f00d2
:100cc000820f5000838f580009003d000a00e000a9
:100cd0000300320001003c000201ea000205780036
:100ce0006000b800200798003a0798001900370004
:100cf0003e0090006100b9000aff0700809fbe001f
:100d00000c00be004109dd004811de007208b10090
:100d10001b0107000005be001e01be0059ff0700b1
:100d20004f01be0035fe0700809fbe000c00be00d4
:100d30000a01be0031fe07001e01be0051ff070080
:100d40004f01be002efe07008221270013f323006f
:100d50004cff07000005be002e0090006100b900a6
:100d6000f0fe070001f0a2000c01be0024fe070007
:100d70000006be000800be00ae0107000c01be0068
:100d800040ff07000a01be001dfe0700809fbe0055
:100d90004a0007002e0590000af0a7000a05ea00a5
:100da000050037000800be000801be0035ff07003f
:100db0000004be000c00be000801be000a00a7002f
:100dc00030ff07000006be000a05d100f5ff3a001b
:100dd0005e01900002e0a600030037000001be00a3
:100de0003600070063fe07000004be004f00be008f
:100df000810007000801be0022ff07003e019000ad
:100e00006a010700de0590000bf0a70001f0a200c8
:100e10004f06be004f05be004f04be000080fa0022
:100e20000000060025000700f9ff37002700070033
:100e30006000b8000bd0a7000bc0a0000be0a7001b
:100e40000bc0a2000bc0a70001f82700f0ff37007d
:100e50000df8a300020032001e0007001900070071
:100e60000bf8a300eaff32000b30a70001f0a2004c
:100e7000e7ff37000df8a300f9ff3a00f7ff37004e
:100e80000801be000b000700e6ff320001003c0035
:100e90000df0a2006000b8000df0a70009000700e7
:100ea000dbff37000b000700f1ff2700f0ff2f00ea
:100eb000d7ff370001000700d800370001f82300f2
:100ec0000000050001f827000000050020022000b6
:100ed0000100370010022000b06388000000060007
:100ee0006022b800060220000000d0008180d200fd
:100ef0000482d2008582d2000000a00002025200cb
:100f000083825a00030031000202420083824a00b9
:100f10000000a1000603e900f3ff3a00000006000c
:100f2000889fbe008a9fbe008c1f78000006eb00e1
:100f3000e00f5000e08f5800e00f5900e08f59009b
:100f400007003d006044b8006055b8001c00200058
:100f50000000540081805c0002015d0083815d001f
:100f6000e00f5200e08f5a00e00f5b00e08f5b0063
:100f700007003d006044b8006055b8000c00a200b6
:100f80000402540085825c0006035d0087835d00d7
:100f90007f010700e00f5600060032006022b80013
:100fa0006033b8000000520081805a0002015b00eb
:100fb00083815b004f0678004f05be004f04be00e2
:100fc000000006000003be0081fe07006220e10071
:100fd000020032000600be0005000500e507b10072
:100fe000f107b20004f023008480700007f0a7002e
:100ff00001f0a00024000500889fbe008a9fbe006b
:101000008c9fbe000004be0071fe07000800be00f9
:101010006420e10048003e005500320072212700a4
:10102000132b24007f00070047003c000800be008f
:10103000c2ec2800e32c2c007800070047003500a4
:101040000800be0001f0a1000200200003382300c8
:1010500072000700430035000800be00b2a32a005a
:1010600083fb230087fe07000200200003f023001b
:1010700001f0a70003f0a00061fd07006b0007006e
:101080000005be0027fe070001f0a2000006be001a
:101090000200280013f323007afe07000801be00b7
:1010a00057fd0700809fbe000c00be0032082800dc
:1010b000e3952b0073fe07004f01be0050fd0700b3
:1010c0000006be000001be006efe0700809fbe004d
:1010d0004241250083b823006afe07000200200079
:1010e00003e8230046fd07000c01be0065fe070073
:1010f0000006be004f00be00f2f92b00c3d423004f
:1011000060fe07000200200003f023003cfd070002
:101110000c01be0039fd07000001be000c00be003e
:1011200094fd07000200200003f0230034fd0700b7
:10113000610145009d0007004f06be004f05be003f
:101140004f04be000000060001f827000000200048
:1011500022022000b2638800f7ff37006000b80069
:10116000fbff370001f8230000002000f2ff3700ea
:1011700009f8a300f0ff32006000b800eeff37006e
:10118000889fbe008a9fbe000003be0010fe0700bd
:101190008505780082815200020020006220e10073
:1011a00004003a00f307b100040035007718e100ad
:1011b000040035000600be00140037006000b800cf
:1011c0000f003700f50f2000faff2f008502d10035
:1011d0000a85d3008301e900fcff3b0081846200a3
:1011e00000046500890f7400f2ff32008582ea0076
:1011f0000a85ea008184620000046500cefd0700d4
:1012000007f0a70001f0a0000081eb000200e00061
:101210004f05be004f04be00000006001400200071
:10122000fd003700f4ff2f00fb0037000001be0077
:10123000e7fd07000470a70003f0a1006509b100f5
:10124000160032000d0035006828e1000600350068
:10125000f0ff2f00f1ff27000300e00013003b0028
:1012600001002800000005000000400081804800c7
:101270008502e900fcff3a0008003700f88f4200c1
:1012800002003c008000eb00000005008100d1005e
:101290000080d3008502e800fcff3a000300e00074
:1012a00002003b0060001000e08018000000060013
:1012b000881f7800030478000300e00007003d0069
:1012c00060001000e080180060011900e081190042
:1012d00002003b0001f02d0003003700040007006e
:1012e00008f0a70001f0a0004f04780000000600fd
:1012f000889fbe008a9fbe000082700004027100b9
:1013000004827100260032000004be000200be000c
:101310006011b8006b092000950220000182cf0007
:101320000a0039000541b1000082cf0007003900f2
:101330000541b1000982cf00040039000541b10028
:101340000882cf00010039000541b100054252007a
:10135000120032000a003b008281710061016400ca
:101360008100d1000080d3008984d3000884d30099
:101370008b05e8000442e800f7ff3a000700370059
:101380000804440089844c00000048008180480023
:101390008b05e9000442e900f9ff3a0066fd070009
:1013a0004f05be004f04be00000006000003be0053
:1013b00087fd07006220e100020032000600be0047
:1013c0000000060085024100e30f20000328e10031
:1013d00005003c00a3fe2f000328e10007003d00ac
:1013e0000500200001003700f50f2000200220003a
:1013f000b06388006000b8000800370013002000c8
:101400008381520005003d008100d1000080d3009f
:101410008301e800fcff3a0005002000c72add0038
:10142000f107b2008580700007f0a70001f0a0006e
:1014300000000600889fbe008a9fbe008c9fbe00f1
:10144000e0fe0700850478000005be006420e1008e
:1014500049003e006220e10003003200090035002f
:101460000bf8a300440032000bf8a3000800320080
:1014700010022000b0638800f0ff2f00f1ff27006a
:101480003d00370001f82f00000020003a0037002f
:101490003d00070059fc07000006be000a00be0020
:1014a000324f200053f323005eff07000600340094
:1014b0000c00be003400070050fc07000006be0010
:1014c0000a00be00020037008904e9000c00be00db
:1014d0002d0007006bfd07002b00070048fc0700ec
:1014e0000001be000c00be00a2fc07000005be000b
:1014f0000001be0063fd07000006be00a2f323004a
:10150000430d2c003efc0700809fbe000c00be0077
:10151000d2e32700d3f02b005afd07004f01be0095
:1015200094fc07000006be000a01be0055fd07003e
:101530000a01be0032fc07000006be006148b90087
:10154000f8fc07000005be0032082800e3952b00d8
:101550004cfd07000c01be0029fc07000006be0080
:101560000a00be000200280013f3230045fd070017
:101570000c01be0022fc07004f06be004f05be0056
:101580004f04be000000060003f023000200050027
:10159000889fbe008a9fbe008c9fbe000404b800d6
:1015a0000506b8008904460060854e000606b800ae
:1015b0000a054600e0854e000706b8008b05460088
:1015c000040eb800890446000a854e00e0854d00ef
:1015d000050eb8000a0546008b854e00060eb800c1
:1015e0008b0546000416b8000a0546008b854e00a0
:1015f0000516b8008b054600041eb8008b05460092
:101600000800be000a01be004f06be004f05be0026
:101610004f04be0000000600889fbe008a9fbe00e7
:10162000841f7800fffc07004f0078001100330092
:10163000f0ff2f00838f6c0006003b00040565005f
:101640000a00a7000800370009f0a60010002000db
:1016500008003700820f5400838f5c0003003900bc
:101660001000200001003e000000200009f0a7004b
:101670000000ea004f05be004f04be000000e0007d
:10168000000006000002780002003700015a7800ce
:101690000201e900e00f5100fcff3a0000000600e3
:1016a0000c00fa00889fbe00f4ff270000047800b9
:1016b000d4bf9f008004eb0088bf9f0099bf9f00ac
:1016c000a8bf9f00240c200078815700b4bf9f0062
:1016d000cfb0970070805700c40007000fba970082
:1016e000094a78000fba9700080052004f04be0064
:1016f0000080fa0000000600d4c6b3000800fa001b
:10170000889fbe000084fb008a9fbe00844f50006b
:101710003400360089d220004b0620001100090059
:101720000b84d800720040004300dd0000804400bc
:10173000810578006022b8000600200007fe230023
:10174000aa0020005001be004000be00e7080700cc
:101750000002be00110009008a85d80080057800cb
:10176000e9854500c35ddd008b8544000203be00b2
:1017700084bf9f0095bf9f00a6bf9f00b7bf9f007b
:101780003b02be002b03be000fb897009fb8970026
:101790002fb99700bfb99700d40807000002be0018
:1017a000110009000a84d800010478004344dd00d8
:1017b000888444000203be0084bf9f0095bf9f0041
:1017c000a6bf9f00b7bf9f003902be002903be001d
:1017d0000fb897009fb897002fb99700bfb997002f
:1017e0001d003700ea4f500013003600aa00200009
:1017f00089d22000110009000a84d8000105780070
:10180000690440004355dd004344dd000884440082
:101810008a8444006022b8000600200007fe2300ee
:101820003800be002801be00b00807003902be0023
:101830002903be000800370084d220004344dd00a5
:10184000080442006022b8000600200007fe2300c2
:101850003800be002801be00a40807004f05be00e6
:101860004f04be000080fa0000000600d4c6b3009a
:101870000800fa00889fbe008a9fbe00e04f50001b
:1018800022003d000040ea000004fb00844f5000ad
:101890000a00340044062000a900200011000900bd
:1018a0000404d8008ad22000110009008900d80061
:1018b000e9004000c308dd0020003700ea4f500077
:1018c0000f003400a4002000110009000404d80017
:1018d00084d22000690040004300dd000000420087
:1018e000430cdd00080242005001be004000be0073
:1018f0005403be004402be007c08070037003700d6
:101900004344dd0084d22000310037000004fb0096
:10191000844f50002300340044062000a90020001a
:10192000110009000404d8008ac720001100090032
:101930008900d800e9004000c308dd0081004500af
:101940008b0920008a8545003102be002103be00bc
:101950003b00be002b01be00640807000002be0071
:10196000110009000904d800010478004344dd0097
:10197000080545000203be0084bf9f0095bf9f007d
:10198000a6bf9f00b7bf9f003a02be002a03be0059
:101990000fb897009fb897002fb99700bfb997006d
:1019a000d5ff3700ea4f500007003400a4002000a4
:1019b000110009000404d80084c720006900400019
:1019c0004300dd00c5ff37004344dd0084c720002d
:1019d000080442003800be002801be004f05be00ca
:1019e0004f04be000080fa0000000600ef05b000c2
:1019f000889fbe008a9fbe008c9fbe0000067800b4
:101a00008e1f78000007eb00e19f9f0082af9f00d0
:101a10006000b8006011b80080a79f0091a79f00e8
:101a2000a2a79f00b3a79f00d9053700ef989700a2
:101a300054c2b3008100e800e19f9f00844f500032
:101a400006003a00810278008006eb0007c3b3006d
:101a500000c2b300b1c2b3000e0037003c029000d8
:101a60000404b200040032001c027800004a78002e
:101a7000040ee800050037000000fb008c00780031
:101a8000cf050700e10f4000c10532000e07e80056
:101a9000bf05370005037800d2c2b3003542780095
:101aa000824f52000900320005003c00804f520076
:101ab00008003200814f52000c003a000700370046
:101ac000874f520009003a00060037000d30a00091
:101ad000f0ff37000d00a000eeff37000d10a00052
:101ae000ecff37000d20a000eaff3700e28266001d
:101af000010032000d00a100e88266000100320002
:101b00000d20a1008402fb000503b100e98f520003
:101b10000d003e00860278008003eb003502fb00da
:101b20006a3bb9000403b100860342001502fb00c2
:101b3000050378000403b100e90f5200f7ff3600f7
:101b400097b79f000a0037008002eb0095b79f000f
:101b5000a5c2b300854f520005003a008fab970035
:101b60000603e8004700780087af9f0090b79f000a
:101b7000e4c2b300964f120017003a000de0a00037
:101b800064425200d64f1200030032000602780071
:101b90008003eb00090037000fa997000603e80057
:101ba000c201780082af9f00d3af9f00c7c6b300c9
:101bb0000d0037006a3bb9008683420004037800b9
:101bc000b402fb000503b100e98f5200f9ff3600b3
:101bd000d7af9f00f5ff37000002eb000dc0a0005b
:101be000d4af9f00f1ff37008602780035427800bd
:101bf00005037800874f52002d003200e59f9f00bb
:101c0000c5c6b300854f520014003c00e8c2520024
:101c1000854f52002400320009003c00ecc2520003
:101c2000854f52002e003200ebc24200854f520019
:101c30009a003200e04f52005a053200b8003700d7
:101c400065c6b300854f52001f003200e3c2420058
:101c5000854f5200b2003a001300370035c7b30079
:101c6000854f52002200320007003c00e4c25200bf
:101c7000854f5200170032008542e800854f520020
:101c8000a7003a001600370055c7b300854f520031
:101c9000a8003200e3c24200854f5200a0003a0083
:101ca000e4579f0010003700e4579f00a30037005f
:101cb000f0826600040120000100320004002800c8
:101cc0008d067200c8ff3700e4579f000da0a000ea
:101cd0009a003700e4579f000d60a000970037007e
:101ce000e4579f000d50a0000d70a0009300370036
:101cf0008faa9700e4579f004502780085af9f00a8
:101d000004047800e00f520001003a00a8e9200026
:101d1000880278000002eb00010037000402e800ae
:101d200065437a00e04f5300fcff3a0084047800da
:101d30005fab9700e00f530003003200890f5300a0
:101d400001003100860478000002eb009fb3970089
:101d5000898f53000100360009825300e88666002f
:101d6000ddaf9f000d007800e00f50002c003a001e
:101d70008406780004c2b30010003700bc02900053
:101d80000504b200040032009c027800844a780006
:101d9000050ee8000700370084bf9f008c00780024
:101da00000022000060507000fba9700e10f40006f
:101db000010032000e07e8008d06e900e08f5600b2
:101dc000eeff3a000082eb00150037003c02900065
:101dd0000404b20009003200080278001c037800f5
:101de000b4427800054b780004047800060ee80041
:101df000e0cf520008003a000a00370008027800dd
:101e00008c0078003400fb0004047800ec04070028
:101e1000e10f4000030032000e07e8000100370028
:101e200084067800090278008404e900e00f52007b
:101e3000e6ff3a000d027800dfa89700e08f50001f
:101e4000d30432008406780004c2b30010003700c7
:101e5000bc0290000504b200040032009c0278002d
:101e6000844a7800050ee8000700370084bf9f0011
:101e70008c00780000022000d10407000fba970000
:101e8000e10f4000010032000e07e8008d06e90076
:101e9000e08f5600eeff3a00bd0437000fa997000f
:101ea000f08266004202780082af9f000400780052
:101eb000cf80de00010178008201780090af9f00a2
:101ec000a1af9f00b2af9f00c3af9f004800de00ec
:101ed000480add0000007200e0579f00e08f5200ca
:101ee00009003200e04f500007003200e14f40008f
:101ef00005003200afd29700f0579f00855f9f002a
:101f000029002000030037002fd39700190020007c
:101f1000f6579f0078f92f000f04440084ff370024
:101f2000e4579f0068f92f000f04440019002000b7
:101f30007fff3700e4579f000d0cb30004702000b2
:101f400004826600650232000400210004826600fb
:101f50000200320067002000d7af9f007082660049
:101f6000090032000faa97004401be004400be00e1
:101f700084af9f0090af9f00a1af9f00b2af9f00c2
:101f8000c3af9f000a0037008faa97004500be002c
:101f900085af9f003d0607000002be000203be00a1
:101fa00094af9f00a5af9f00b6af9f00c7af9f0043
:101fb0006022b8006033b8001fa89700afa8970050
:101fc0003fa99700cfa9970082050700e00f5000b6
:101fd0000a003d001fa89700afa897003fa99700ef
:101fe000cfa9970003f0a20090af9f00a1af9f0080
:101ff000b2af9f00c3af9f003d00b3000002eb00f3
:102000001fa89700afa897003fa99700cfa99700f6
:10201000d48f9f006022b8006033b800d10507005c
:10202000e00f500034003200a4f92f000f024200ec
:102030001fa89700afa897003fa99700cfa99700c6
:102040008d0607005f889700a40020000000e900cb
:102050006300b900110009000400d800d08f9f0070
:10206000e00f500002003d000000e900d08f9f000b
:102070005f8c97000840ea00fcfd07001faa97004c
:10208000afaa97003fab9700cfab9700970607002a
:102090000002be000203be0084a79f0095a79f0018
:1020a000a6a79f00b7a79f006022b80006002000e7
:1020b00007ff230047050700e00f500002003d0026
:1020c0000804e9000b0037006022b8000600200079
:1020d000470224000fa097009fa097002fa1970010
:1020e000bfa1970040050700e00f50000200350037
:1020f0000804e800d88f9f00dfaa9700f88f5200ed
:102100000f003c00054078007bfd07000002be0088
:102110000203be001fa89700afa897003fa9970031
:10212000cfa99700ae0407000002be000203be0064
:1021300094af9f00a5af9f00b6af9f00c7af9f00b1
:102140005f8c9700e90f540015003c006022b80036
:102150006033b8001fa89700afa897003fa9970069
:10216000cfa997007f050700e00f50003200320032
:102170001fa89700afa897003fa99700cfa9970085
:10218000e1050700e00f5000e08f5800e00f590014
:10219000e08f590028003a00e10f54002600340077
:1021a0000400200005002e00b6e0220017012400e4
:1021b0000fa097009fa097002fa19700bfa19700a5
:1021c00004050700e00f500002003d0073045400b6
:1021d0000100370072045400d88f9f002f589700d9
:1021e000a2fd07000002be000203be001fa8970068
:1021f000afa897003fa99700cfa9970084a79f0099
:1022000095a79f00a6a79f00b7a79f00fb04070004
:10221000bd0507000205be000004be006000b80056
:102220006011b80090af9f00a1af9f00b2af9f00b8
:10223000c3af9f00170037001fa89700afa89700f3
:102240003fa99700cfa99700af0507000205be0080
:102250000004be00dd0507000002be000203be0050
:102260001fa89700afa897003fa99700cfa9970094
:10227000930607000002be000203be0094af9f0059
:10228000a5af9f00b6af9f00c7af9f000002eb0055
:10229000d48f9f0001de200010c0b300080037007b
:1022a0003102be003103be000440e10005c8e10078
:1022b00006d0e10007d8e100030039000040e80043
:1022c000f44f5000f6ff3a009fb297005f8a9700e4
:1022d0005fab970004825200e0579f0086025200d5
:1022e0000002fb000482520094b79f00e00f5300ed
:1022f000020032000402e90094b79f006382660086
:10230000030032009fb397008703e90097b79f004f
:10231000648266004500320062826600e1826600e7
:10232000e00f5200110032003c0290000404b200a1
:10233000080032001c037800b4c2b300e08f5200e2
:102340000100320004c2e800044b7800060ee800e9
:1023500015003700b0022000e08f5200010032006b
:102360000080e8008c0078000c003700e08f5200fd
:10237000200032003c0290000404b200050032004c
:102380009c02780004c2b300844a7800050ee8007d
:10239000050037008c007800000220008803070049
:1023a000e10f4000130032000e07e8001100370073
:1023b0003c0290000404b200040032001c027800c9
:1023c000054a7800040ee80007003700f5b79f00c3
:1023d0008c0078000003200079030700ffb297000b
:1023e000e10f4000010032000e07e8008904e90017
:1023f00006003700c8a79f00d9a79f00eaa79f0043
:10240000fba79f009fb4970005c3b300e08f540063
:10241000e7ff3c0099b79f004fa49700dfa4970007
:102420006fa59700ffa597006e00370068826600d1
:102430001f003a00110037003c0290000404b20073
:10244000040032001c027800054a7800040ee800ff
:1024500007003700f5b79f008c00780000022000cd
:1024600057030700ffb29700e10f40000100320060
:102470000e07e8008904e90006003700c8a79f009e
:10248000d9a79f00eaa79f00fba79f009fb49700d2
:1024900005c2b300e08f5400e7ff3c0099b79f00ee
:1024a0004fa49700dfa497006fa59700ffa59700a2
:1024b00062826600e1826600e00f52001100320085
:1024c0003c0290000404b200080032001c037800b3
:1024d000b4c2b300e08f52000100320004c2e80031
:1024e000044b7800060ee8003d003700b0022000e3
:1024f000e08f5200010032000080e8008c0078007c
:1025000034003700e08f5200360032003c02900069
:102510000404b200050032009c02780004c2b3003b
:10252000844a7800050ee8002d0037008c00780002
:1025300000022000270037003c0290008502fb00cb
:102540000404b2001300320082dd2000c32add0043
:10255000850241009c0078005503be004502be0084
:10256000c1a79f000800be000a01be008706070041
:10257000a4002000050020006033b8008a06070090
:102580004fa2970005c3b300054a4000040ee800bf
:102590001300370086dd2000c32add0085024300da
:1025a0000800be000a01be005503be004502be0081
:1025b00076060700a4002000050020006033b80064
:1025c000790607008c007800040320000002420016
:1025d00004007800fa020700e10f40000100320019
:1025e0000e07e8006f5297008442e900e5579f000c
:1025f000e04f5200d0ff3a00110037003c0290003b
:102600000404b200040032001c027800084a78007a
:10261000040ee800050037008c007800000320005d
:10262000e7020700e10f4000010032000e07e8005a
:102630005f8a97000402e900d48f9f0001003700f1
:1026400008c3b3005f8a9700e00f5200ebff3c0025
:10265000dfab9700f28f53000300340024c1b300b6
:10266000e4579f00020037002fd89700e0579f00e3
:102670006f529700dfa897000403fb000683500009
:10268000c6a79f00e04f52000e0032003c029000af
:102690000404b200050032001c027800e5c2b30059
:1026a000054a7800040ee800050037008c00780029
:1026b000e0022000c2020700e10f400001003200ea
:1026c0000e07e8006f50970068fc07000002be008c
:1026d0000203be001fa89700afa897003fa997006c
:1026e000cfa99700010507008704070035003700d0
:1026f0003c0290008502fb000404b200130032008b
:1027000083dd2000c32add00858241001c017800a2
:102710005503be004502be00d2af9f000800be00b8
:102720000a01be0019060700a400200005002000d1
:102730006033b8001c0607005faa970005c3b3000a
:10274000054a4000040ee8001300370086dd200033
:10275000c32add00850243000800be000a01be0056
:102760005503be004502be0008060700a400200075
:10277000050020006033b8000b0607008c007800cd
:102780000403200000024200040078008c020700cd
:10279000e10f4000010032000e07e800ef53970000
:1027a00080dd20000702fb004322dd000402400020
:1027b0000800be000a01be005403be004402be0071
:1027c000f90507006f5297000205be000004be0025
:1027d0008442e900e5579f00e04f5200c4ff3a00f1
:1027e00011003700bc0290000504b2000400320062
:1027f0009c027800844a7800050ee8000700370044
:1028000084bf9f008c007800000320006c0207004a
:102810000fba9700e10f4000010032000e07e800f8
:102820008904e90006003700cfa49700d0af9f00cd
:10283000e1af9f00f2af9f0083b79f0004c3b300d6
:10284000e08f5400e7ff3a005fac9700efac9700d1
:102850007fad97008fb59700e88666004c02320086
:102860009fb09700e08f5000490234000802be007c
:102870000a03be000dc2b300810478003c00900042
:102880000004b200040032001c0078000d487800fb
:10289000000ee8000d00370084bf9f00f5b79f00d1
:1028a000d6b79f00e7b79f008c0078000002200099
:1028b000430207000fba9700ffb297005fb397007b
:1028c000efb39700e10f4000010032000e07e8006f
:1028d0008904e900e9ff3a002d0237008d027800f3
:1028e000050cb2002a003a00e08f560005003d00ba
:1028f0000fa997004205be004204be0082af9f00b0
:1029000016003700708266000e0032000fab970091
:102910004602be00c4979f00d5979f0086af9f00d8
:10292000160290004fa2de00e4979f00f4979f00ec
:102930004f949700df9497006f959700ff9597004d
:10294000060037000fa897004004780080af9f0072
:10295000cfc4de00090578008a057800e00f540036
:10296000e08f5c00e00f5d00e08f5d0023003d0024
:102970006022b8006033b8003d00b3000804520084
:1029800089845a000a055b008b855b001b003700b9
:10299000e08f560005003d008fa897004105be005e
:1029a0004104be0081af9f0014003700f082660032
:1029b0000c0032008faa97004501be00a4979f002b
:1029c00082979f0093979f00b4979f0085af9f00c9
:1029d0000f9497009f9497002f959700bf959700ad
:1029e000060037008fab97004704780087af9f0041
:1029f000090020000a0020000b0020005fa89700bb
:102a0000e00f500009003a0011002000d1af9f00f4
:102a1000e00f5400e08f5c00e00f5d00e08f5d0090
:102a2000020032000001eb00d2af9f008d01780060
:102a300004042000030cb20093af9f00848f510068
:102a40002c00320003003c00e08f510008003200ef
:102a50003c003700040820009faa9700848f520092
:102a600010003200040c2000848f520035003a0020
:102a700001de200010c0b3003102be003103be00f1
:102a80000440e10005c8e10006d0e10007d8e100fc
:102a90002b0039000040e800f44f5000f6ff3a00e8
:102aa0002700370010c0b3000401200005002000fb
:102ab0006033b8000440e10005c8e10006d0e10041
:102ac00007d8e1001e003900410020000402d000b8
:102ad0008582d2000683d2008783d2008100e9007c
:102ae000faff3a000040e800f04f5000f1ff3a00d2
:102af0001300370010c0b300840020000500200040
:102b00006033b8000440e10005c8e10006d0e100f0
:102b100007d8e1000a003900320020000402d0008a
:102b20008582d2000683d2008783d2000201e900a9
:102b3000faff3a000040e800f54f5000f1ff3a007c
:102b4000e0579f00ef519700dfaa97000302fb00b8
:102b5000850f520002003d00e5579f00040037003a
:102b60005fab9700840f530001003d00d4af9f007e
:102b70009fb39700e08f5300040032006382660029
:102b8000020032008703e90097b79f000400240089
:102b900004826600090032001fb09700dfa897008a
:102ba000810f5000030034000100500090b79f00d7
:102bb000020037000001eb0092b79f00ef51970031
:102bc0008002eb000302fb00c5a79f001fb3970024
:102bd000840f53000200340004025300c4a79f0076
:102be0006482660045003200e2826600618266000f
:102bf000e08f520011003200bc0290000504b200c8
:102c0000080032009c027800b6c2b300e00f520008
:102c10000100320006c3e800864a7800050ee8008d
:102c200015003700b0022000e00f52000100320012
:102c30000080e8008c0078000c003700e00f5200a4
:102c40000e0032003c0290000404b2000500320085
:102c50001c02780005c2b300054a7800040ee800a3
:102c6000050037008c0078000002200054010700a6
:102c7000e10f4000010032000e07e800cfa39700eb
:102c8000e08f53006300320098b79f00a9b79f0000
:102c9000bab79f00cbb79f0004c3b3008704780086
:102ca000bc0290000504b200040032009c027800cf
:102cb000844a7800050ee8000700370084bf9f00b3
:102cc0008c007800000320003d0107000fba970038
:102cd000e10f4000010032000e07e8008904e9001e
:102ce000efff3a00c9a79f001fb49700afb4970049
:102cf0003fb59700cfb5970046003700cfa09700ab
:102d0000e08f50001e003200688266001c003a000e
:102d100098b79f00a9b79f00bab79f00cbb79f0095
:102d2000cfa4970004c2b300bc0290000504b20017
:102d3000040032009c027800844a7800050ee80006
:102d40000700370084bf9f008c007800000220003d
:102d50001b0107000fba9700e10f4000010032008d
:102d60000e07e8008904e900efff3a00c9a79f00b9
:102d70001fb49700afb497003fb59700cfb5970049
:102d8000e282660061826600e08f5200110032002c
:102d9000bc0290000504b200080032009c027800da
:102da000b6c2b300e00f52000100320006c3e800d3
:102db000864a7800050ee80015003700b0022000b2
:102dc000e00f5200010032000080e8008c00780023
:102dd0000c003700e00f52000e0032003c02900061
:102de0000404b200050032001c02780005c2b300e2
:102df000054a7800040ee800050037008c007800d2
:102e000000022000ee000700e10f40000100320048
:102e10000e07e800dfa8970085dd20000102e90029
:102e200098b79f00a9b79f00bab79f00cbb79f0084
:102e30004221dd006323b900929f9f004322dd0001
:102e40008601780085024200839f9f00f59f9f00c6
:102e5000708266008d027800f48f9f000502b20038
:102e6000e58f9f00a3003700dfa897001fa99700f8
:102e70008100e90003042000d1af9f00830f5100bf
:102e80007300320003003c00e00f510008003200e4
:102e90007e003700040820009faa9700848f52000c
:102ea00056003200040c2000848f520077003a0054
:102eb000e08f56001f003d007f9b97001fb09700da
:102ec000afb097003fb19700cfb197003604be0076
:102ed0002605be000802be000a03be002b04070040
:102ee0000802be000a03be00e0579f000000fb007e
:102ef000cf80de00010178008201780008f8070029
:102f00001fb29700afb297003fb39700cfb39700bf
:102f10000002520081825a0002035b0083835b003f
:102f200094b79f00a5b79f00b6b79f00c7b79f0093
:102f30002e003700ff8a9700e08f520022003200f7
:102f40007f9b97001fb29700afb297003604be0078
:102f50002605be000400be0084bf9f00f5b79f0099
:102f60000801be00def707000801be00e0579f0021
:102f70000000fb00cf80de00530307000fba97006c
:102f8000ffb297000001520081815a000002eb005d
:102f9000a29f9f00b39f9f00d49f9f008001eb00e2
:102fa000c39f9f002f989700bf9897004f99970055
:102fb000df99970090b79f00a1b79f00b2b79f001d
:102fc000c3b79f0009003700ff9897001fb1970013
:102fd00011027800110009000481d800a40020002b
:102fe000110009000480d800e1579f00ef519700bd
:102ff0000343b000e3579f002400370094e820000b
:10300000ef8a9700e08f52000100320084e7200031
:103010001fb09700afb097003fb19700cfb19700b6
:103020001f9b97000603e900050033008301d100d0
:103030000281d3008180d3000080d300f9ff3700e4
:103040006f00600064407800e0579f000f00370079
:103050001fb29700afb297003fb39700cfb397006e
:103060000f9897000000e900050033008703d100a6
:103070000683d3008582d3000482d300f9ff370092
:10308000674262000443b000e4579f003c02900096
:103090000404b200070032009c0278006f529700cf
:1030a000844a7800050ee800e04f520007003a001d
:1030b00007003700ef5097000100fb008c007800fc
:1030c0003f000700e10f4000010032000e07e8005a
:1030d0001f9997008f9997007f9a9700640151007c
:1030e000e381510068025200929f9f00839f9f00de
:1030f000f49f9f00dfaa9700e08f52005aff3a002a
:103100001fb49700afb497003fb59700cfb59700b5
:10311000e88666001e0032004fa39700e00f5300c0
:103120001b0034000802be000a03be00cfa49700b3
:103130000dc2b3003c0090000004b2000400320055
:103140001c0078000d487800000ee8000d003700e4
:1031500084bf9f00f5b79f00d6b79f00e7b79f00d9
:103160008c00780000022000150007000fba9700bd
:10317000ffb297005fb39700efb39700e10f4000f5
:10318000010032000e07e8008904e900e9ff3a0077
:10319000ef9b970017407800e0579f00e04f5000ea
:1031a00022fa3a000e0078004f0778004f06be0062
:1031b0004f05be004f04be00ef05b1000000060041
:1031c000889fbe00010478008084eb0038029000e4
:1031d000e20262003b003200040378009802900093
:1031e0000620b20002003a00e08f520035003a009b
:1031f0000490a0008004780034049800f90fb20015
:10320000e08f520002003a00a8029000050c7800fe
:10321000ea8f540005003a000408b20003003a00a7
:1032200088007800d0002000e5ff07001802900019
:10323000d8029000850f52000b0032000402e80013
:1032400015c0b3001404980018027800094a7800e9
:10325000040ce80084ec2000054a7800ea8f540052
:1032600018003a000500370009407800880078000f
:103270001700070080047800120037003802900021
:103280000410b2000f00320018019000a800900056
:1032900048009000a9f4070018029000840f500025
:1032a00004003200380290000403b3003404980094
:1032b0008084eb000002eb001404980028029000c8
:1032c000040c7800090078004f04be0000000600de
:1032d0000200fa00889fbe0001047800a0ff9f0052
:1032e00038029000840278000504b2000200320027
:1032f0000000fb0035003700e202620005003a00e2
:103300000403b30015049800340498000080eb0017
:103310002e003700d8049000e08f540006003a00d9
:1033200012002000e68057004800900083f4070058
:103330001904980023003700a8029000e08f520083
:1033400008003a00c5ec20000430a00025049800d5
:10335000050c7800340498002500200055049800de
:103360001504980018019000a800900048009000f3
:1033700072f40700280290008082eb001504980088
:10338000affa9700054a7800040ce8002ffa97007e
:10339000ea4f52000b003a00380290000410b200cd
:1033a0000800320018019000a8009000480090002a
:1033b00062f407000002eb00a802900014049800d9
:1033c000050c78002ffa97000400fb004f04be00a4
:1033d0000080fa000000060000c0da0000000600cd
:1033e0002800fa00889fbe008a9fbe008c9fbe0006
:1033f00007067800878669000c003b00030478000c
:103400008704780008f0a10009f0a100840f5000a3
:10341000858f5800860f5900890f5c000300330028
:103420000cf0a20001003a000cf0a100fe00070021
:103430006400e1005f003200780147006408e100a9
:10344000610032006c014700748557003200be00f5
:103450001201be003a04be001a05be001e03900011
:10346000be0a90008503530006003d000004fd00e5
:103470008104fd000205fd008305fd008703ea00cd
:10348000050378000df8a300040032006004140066
:10349000e0841c0060051d00e0851d006022b8006e
:1034a0007d0320000d38e1008006eb000b003900a1
:1034b0004433dd00f300b2008301730039003700ac
:1034c000848272000d027800e10664008b85d100d1
:1034d0000a85d3008984d3000884d3008703e900d8
:1034e000f7ff3b0008004000898048000a014900be
:1034f0008b81490004003b0060001000e080180050
:1035000060011900e08119000358a300090032008e
:103510008d82720084827200610260008301d1009a
:103520000281d3008180d3000080d3000603e8002d
:103530001b0037000348a30017003a000600e00014
:10354000170034000603e9000d00a3000000480046
:103550008180480002014900838149000348a3009b
:103560000f003a000600e000090034000603e900fd
:103570000000400081804800020149008381490029
:1035800001003a000003eb000348a300f5ff3200fe
:103590006022b800020037008482720061826600f7
:1035a0007500070003f0a1000cf0a70003f0a000d5
:1035b000b1003700640147006408e10002003a00ee
:1035c0000df8a300a9003a003200be001201be00af
:1035d000a90037008f1fd100d50207008f87e900af
:1035e0000000e00000000600809feb00d002070012
:1035f0008f87e9000000e000000006002800fa00c4
:10360000889fbe008a9fbe008c9fbe0003866b0011
:10361000850007006400e100440032006408e10016
:103620004a0032006100e100460032006108e1001a
:1036300049003200ec0647006000b8003d02be00c1
:103640003d03be00f48657006011b8003d04be0083
:103650003d05be007d0320000b0037000000a000e8
:103660008d06e900130032000402420085824a0000
:1036700006034b0087834b00000040008180480018
:1036800002014900838149000802520089825a00e0
:103690000a035b008b835b00f0ff3b0008024200e3
:1036a00089824a000a034b008b834b008d06e90098
:1036b000edff3a008482720086827200f707b20042
:1036c0008782720001003200150020001e04900065
:1036d0003e0b900006035400e63fb0000368a300d1
:1036e000070032000000a7000500a0008301d10000
:1036f0000281d3008180d3000080d3000603e8005c
:103700008301d1000281d3008180d3000080d300e7
:103710000002eb000482d2001700070003f0a100b2
:103720000cf0a70003f0a00053003700640247002c
:103730006408e1004d0032003400be003401be00d8
:10374000f6ff37006108e100480032006011b80060
:103750006000b800f1ff370003ff270002002000df
:10376000fbff3700801feb00710207008f87e90025
:103770000000e000000006001800200057002000b4
:10378000080453000d003d000600200097fc2f00a8
:103790000740e1001e003400848272006102600074
:1037a0008301d1000281d3008180d3000080d30047
:1037b0000804e800f8ff3a004700200061046000b8
:1037c00005047400040464000d0032006100400030
:1037d000e080480060014900e081490003b8a5008d
:1037e000070032000603e8006538e10004003a00f3
:1037f0008301d1000281d3008180d3000080d300f7
:10380000f87f20000830e10003003500080378004d
:103810006000b8006011b8004433dd00f300b2006e
:103820008301730000000600680447000294be0094
:103830000094be00fc0447008694be008494be0041
:103840000900780083020700080078008102070061
:1038500099007800814f70000b003b000800be000b
:103860005c0207004f00b10003003700f3ff2700a0
:10387000f2ff2f006110b9004f06be004f05be00d9
:103880004f04be000080fa000000060081037800ab
:103890004ff407000001be006000b8000478a300e8
:1038a00013003a006220e10015003e000d003900cf
:1038b0008301d1000281d3008180d3008301d10034
:1038c0000281d3008180d3008301d1000281d30023
:1038d0008180d3000538b000c42add00f300b200b7
:1038e0008381720007f0a70003f0a000000006002b
:1038f000f3ff2700f2ff2f006110b900fbff370034
:1039000003ff2700f7ff37001400fa00889fbe006e
:103910008a9fbe008c9fbe000004be000205be0050
:10392000680047000a90be000890be0049020700e8
:103930000070a7000bf0a1000bf8a30020003a00d4
:103940009e0990000e099000fe0090006e0090000d
:103950009e0290003443200084825200c6ff320051
:103960000a003c00b4fc2f000428e10014003400dd
:103970008301d1000281d3008180d3000080d30075
:103980008502e800faff3a00bbff3700b4002000d0
:103990000428e10007003c0000004000818048004e
:1039a00002014900838149008502e900faff3a00db
:1039b000b1ff37000300280002002000010037009b
:1039c0006011b8006000b800abff3700889fbe00f0
:1039d0000082700004027100048271002400320031
:1039e00036432000c50020008383cf000a00390041
:1039f0000541b1008283cf00070039000541b100c5
:103a00008183cf00040039000541b1008083cf00dd
:103a1000010039000541b10085c353006022b800a0
:103a2000120032000a003b008482720061026000d2
:103a30008301d1000281d3008180d3000080d300b4
:103a40000603e8008743e800f7ff3a000700370065
:103a50000000400081804800020149008381490044
:103a60000603e9008743e900f9ff3a0042ff070037
:103a70004f04be00000006001400fa00889fbe003c
:103a80008a9fbe008c9fbe00040678000004be0022
:103a90000205be00680047000a90be000890be0004
:103aa000ec0107006200e1000800be000a01be0050
:103ab000040020000b003a001e029000e43fb10019
:103ac0006e009000fe0090000e0990009e0990008c
:103ad000f300b20005fe2300858171000bf0a70002
:103ae00003f0a000040e780063ff37002800fa00fe
:103af000889fbe008a9fbe008c9fbe0003866b001d
:103b000049ff07000028a30064003a000128a30031
:103b100067003a000008a30062003a000108a30011
:103b200065003a001e009000be089000810640002b
:103b3000ed3fb100f4805700ee019000111ab8007b
:103b40008e099000311bb8009e099000311cb8000e
:103b5000511db800f485570046000700fe01900093
:103b60003a0007008b85e8003e0007008e099000b0
:103b700040000700ee019000340007008b85e8004c
:103b8000380007008e099000400007009e09900051
:103b90001b18b800890440000a854800fe01900007
:103ba000340007008b85e80038000700ee01900024
:103bb000300007008e0990001b18b80089044000ef
:103bc0000a8548000a98a30008003a00040242004f
:103bd00085824a0006034b0087834b0008044c0093
:103be00089844c000a054d008d06e900848272002c
:103bf000850273004c3add0085027200010032003c
:103c000015002000443ade001400b2004538de0002
:103c1000cb45dd000b007000c540de00cb4ddd0064
:103c20008b8070004549de00cb55dd000b01710033
:103c3000c551de000d037800cffe070003f0a100a0
:103c40000cf0a70003f0a0000bff37001b18b80012
:103c50008502400006834800e0834b0060044c006e
:103c6000070037001b18b800060340008783480090
:103c7000faff37001b18b80087034000088448008b
:103c8000e0844c0060054d00000006001b18b800e1
:103c90000804400089844800faff37000108a300a7
:103ca000f2fe3a005800be005801be00e3ff3700a4
:103cb0000008a300edfe3a0009047800f9ff370080
:103cc00007f0a200c6fd3700020ab900001bb900c8
:103cd0000200b8008100420081004300000006009d
:103ce000889fbe008a9fbe003004be002005be0033
:103cf0000404440085844c0006054d0087854d0072
:103d00000898be000a90be000440e10005c8e1002a
:103d100006d0e10007d8e100020031006800400051
:103d20001008e8004f05be004f04be00000006006a
:103d30001000fa00889fbe008a9fbe00110020007c
:103d40000605be000404be003002be002003be0013
:103d5000c4b79f00d5b79f00e6b79f00f7b79f0095
:103d60000802520089825a000a035b008b835b00c1
:103d700084bf9f0095bf9f00a6bf9f00b7bf9f0055
:103d80000498be000698be004fb29700dfb29700bd
:103d90006fb39700ffb397000820e10009a8e10086
:103da0000ab0e1000bb8e100010039008000eb002f
:103db0004f05be00108810004f04be000080fa00be
:103dc000000006001400fa00889fbe008a9fbe0013
:103dd0008c9fbe000006eb003e000700ccb79f00a2
:103de000bcb79f00acb79f009cb79f008cb79f00eb
:103df0000605be000404be000d0420004fb397006a
:103e0000bfb29700860343002fb29700e00f530024
:103e100004003d003d0007000f004000b0ff070018
:103e200003003700390007000f004000c0ff070003
:103e3000cfb2970095bf9f00e08f52000900350078
:103e40002b00070014002000050020006033b8009c
:103e50000000720081807200020173008381730090
:103e60001c0007000c06e8008d0f5600e3ff3a0027
:103e70001fba9700e00f520005003d000802be0087
:103e80000a03be0000fe2f000f00400094ff070051
:103e90004faa9700e00f520008003a000fb49700b5
:103ea0009fb497002fb59700bfb59700d8b79f0074
:103eb000e9b79f00fab79f008bbf9f000c00070077
:103ec0004f06be004f05be004f04be000080fa0042
:103ed00000000600010007000000060090b79f00e8
:103ee000a1b79f00b2b79f00c3b79f0000000600b4
:103ef00001000700000006001fb09700afb0970058
:103f00003fb19700cfb19700000006004f2bde00b5
:103f1000f9ff070086837300858242004f23de008d
:103f2000a7b79f00868272000402420095b79f00e7
:103f3000ffaa97004f2bde00858242000602720026
:103f400084b79f006faa97004f23de00040242004f
:103f500086827200f5af9f004f18de0000027200eb
:103f6000e5ff0700e4af9f000000400081804800ab
:103f700002014900838149000802be000a03be0015
:103f8000d6ff070000fe2f0000000600881f780003
:103f900018002000881f78008aff07008f87e9003b
:103fa0004f04780000000600801feb0085ff07002b
:103fb0008f87e90000000600889fbe008a9fbe0030
:103fc000e00f5000e08f5800e00f5900e08f5900db
:103fd0000c003d006044b8006055b800000054007b
:103fe00081805c0002015d0083815d00180020007b
:103ff0001500070008003d00180007000004eb0052
:10400000050037000004eb000f00070002003d0030
:104010001200070018002000dcff0700e00f54002a
:10402000060032006022b8006033b8000000520081
:1040300081805a0002015b0083815b004f05be0056
:104040004f04be0000000600e00f5200e08f5a004f
:10405000e00f5b00e08f5b00000006006044b800ea
:104060006055b8000402540085825c0006035d00c0
:1040700087835d0000000600889fbe008a9fbe0007
:104080008c1f7800e00f5000e08f5800e00f5900bf
:10409000e08f59000d003d006044b8006055b80045
:1040a0001c0020000000540081805c0002015d00c3
:1040b00083815d000820e10009a8e1000ab0e10069
:1040c0000bb8e1000d003d00080037000006eb00d2
:1040d000e00f5200e08f5a00e00f5b00e08f5b00c2
:1040e00006003d006044b8006055b800040254006a
:1040f00085825c0006035d0087835d00aaff0700e0
:10410000e00f5600060032006022b8006033b800ad
:104110000000520081805a0002015b0083815b0035
:104120004f0678004f05be004f04be000000060099
:10413000889fbe008a9fbe008c9fbe000404be0004
:104140000605be00809fbe00829fbe002f000700b4
:10415000040678000800be000a01be002b0007001c
:10416000840678004f03be004f02be008d4f7600dc
:104170007fb0970013003300f0ff2f008b8f6b0090
:1041800006003b000d0666000c00a7000a00370081
:1041900007f0a600100020000a003700880f520028
:1041a000898f5a008a0f5b008b8f5b0003003900f8
:1041b0001000200001003e000000200007f0a700d2
:1041c0000000ea004f06be004f05be004f04be00cf
:1041d00000000600e48240001078a30007003200cf
:1041e000640240001178a3003400be001401be0038
:1041f000040032000330a700000006003500be00b6
:104200001501be000330a0000000060005ff2700d6
:1042100005826100070032000428e100010032003d
:10422000240005000600070001003a0044000500d4
:104230000408050002000700f9ff3a001400050019
:104240006f82610081027000850271008502720038
:1042500000000600800078005002be005003be003f
:104260004439de00f700b200f37f20000301610053
:10427000090032000218e10016003a0085017200c0
:1042800083017300838173000008200015003a0049
:104290004000200013003700850172008301730085
:1042a0008381730005003a0004a8be0006a8be0082
:1042b000100020000b0037000201e9000402420058
:1042c00085824a0006034b0087834b000748a30002
:1042d000f9ff32000740a00004a8be0006a8be00f7
:1042e0002000200080009800920098000000060046
:020000040000fa
:1042f0000a52000065610000646900006e670000fa
:1043000020730000656e0000736f00007273000080
:10431000206600006f7200002066000069720000d5
:104320007374000020740000696d0000652e0000a9
:104330002e2e0000000a0000436100006c630000a4
:10434000756c000061740000696e00006720000059
:104350006f6600006673000065740000732e000035
:104360002e2e0000000a0000464900004e490000c1
:104370005348000045440000210000000a5300009b
:10438000656e0000736f000072200000726500000f
:1043900061640000696e0000677300002077000010
:1043a00069740000682000006f66000066730000fa
:1043b00065740000733a0000000900000059000015
:1043c0006f750000722000006f66000066730000c9
:1043d00065740000733a0000000a000044610000a8
:1043e00074610000206900007320000070720000fa
:1043f000696e0000746500006420000061730000b5
:104400003a20000061630000656c00005820000045
:1044100061630000656c00005920000061630000ca
:10442000656c00005a20000067690000726f000090
:104430005820000067690000726f000059200000da
:1044400067690000726f00005a00000042610000be
:1044500064200000696e0000697400000023000001
:10446000543a000025300000356400002347000066
:10447000595200003a25000030350000642c00003d
:1044800025300000356400002c2500003035000088
:104490006423000041430000433a0000253000003f
:1044a000356400002c25000030350000642c00002d
:1044b0002530000035640000002300005465000032
:1044c0006d7000003a2500002e310000662c0000bf
:1044d0002050000072650000737300003a20000055
:1044e000256c0000642c0000204100006c7400006a
:1044f0003a200000252e0000326600000000000077
:1045000042610000642000006672000065650000e2
:104510007a65000020740000696d0000657200007b
:104520000049000032430000206100006e7400006a
:104530006920000066720000656500007a65000071
:10454000206100006374000069760000617400005f
:1045500065640000000000000d0a00000025000056
:10456000640000002566000000300000782500008f
:104570007800000042610000642000006d730000bc
:1045800020740000696d00006572000000000000ea
:020000040000fa
:104590001600fa00620120008000eb000e00780097
:1045a00038f4070063c1b3000e017800a1cab3005c
:1045b00070c7b300b40a07001e4278000482fb00f3
:1045c000c822dd001e4290000482fb00050272003a
:1045d000e46188002e4290000482fb00c822dd00c6
:1045e0003e4290000482fb0005027200f4618800e4
:1045f0004e4290000482fb00c822dd005e42900023
:104600000482fb0005027200046288006e42900082
:104610000482fb00c822dd007e4290000482fb0081
:1046200005027200646288000e4a90000482fb005a
:10463000c822dd001e4a90000482fb0005027200c1
:10464000746288002e4a90000482fb00c822dd00bc
:104650003e4a90000482fb000502720084628800da
:104660004e4a90000482fb00c822dd005e4a9000a2
:104670000482fb0005027200146288006e4a9000fa
:104680000482fb00c822dd007e4a90000482fb0009
:1046900005027200246288000e5290000482fb0022
:1046a000c822dd001e5290000482fb000502720049
:1046b000446288002e5290000482fb00c822dd0074
:1046c0003e5290000482fb000502720034628800b2
:1046d0004e5290000482fb00c822dd005e52900022
:1046e0000482fb00050272005462880014c0b3000b
:1046f00004437800a5c32000864a78000080fa00b1
:10470000000006000200fa00004f78001e42780008
:10471000e34f520009003e009e42780094c32000ff
:10472000054a78000e0007000042780055c5b30026
:10473000854f520003003a000400370000c2eb002e
:104740000400370000c2eb000200370090ff0700b2
:104750000042eb00044078000080fa0000000600f0
:104760000000fa0013c0b30062c3200001cdb30003
:1047700070c7b300440a070064c3200014427800e5
:10478000044078000080fa00000006000000fa00f3
:1047900013c0b30062c3200041cfb30070c7b300a1
:1047a000390a070064c320001442780004407800ee
:1047b0000080fa00000006000200fa00004f7800b6
:1047c0001e41780041cfb30070c7b300a8090700ad
:1047d0000080fa00000006000000fa0023c0b300c9
:1047e00062c3200061cfb30070c7b300260a070080
:1047f00064c32000144278000482fb00c822dd005c
:1048000074c32000144278000482fb000502720089
:10481000040078000080fa00000006000000fa00a2
:1048200033c0b30062c3200061cfb30070c7b300d0
:10483000150a070064c32000144278000482fb00bc
:1048400005002000c023dd000600200074c3200006
:10485000144278000482fb004822dd00050020009d
:10486000040373008583730084c32000144278001e
:104870000482fb000500200004027300858273009f
:104880000400be000080fa00000006000000fa00ec
:104890004019210001002000190807000080fa00db
:1048a000000006000000fa0094c3200014427800c3
:1048b0000482fb00cfa2de003600200007002000ab
:1048c000860f5200878f5a0015003e0004600100d9
:1048d0000300370006003700090037000c003700de
:1048e0004019210001002000050807000f003700d3
:1048f000c0d4210001002000010807000b00370090
:10490000c04b230001002000fd070700070037000f
:10491000c039260001002000f90707000300370016
:10492000c039260001002000f50707000080fa00ca
:10493000000006000c00fa0040079800510798009c
:1049400084628000050020004e039000de0390008a
:104950000403530085835b0074628000050020001f
:1049600004b8b9000000780006a9b90082007800f8
:104970000100400006037800040278000432b80009
:1049800005004000800278004129dd004f22de0052
:1049900004027100cfaade00048fbe0034628000e2
:1049a000cfa2de004b2bdd00c523de0087037300a2
:1049b0004b23dd0054628000cfa2de003e014200a6
:1049c000ae814a000202be000401be000600be0025
:1049d000aaef07000002be002407980035079800e0
:1049e0002e029000be0290003e034200ae834a00b9
:1049f0000602be000400be000080fa0000000600af
:104a00000000fa00e0c2b3006bff07000080fa006c
:104a1000000006000000fa0094c320001442780051
:104a20000482fb004622dd008442780044c3b300c8
:104a300004c27200044078005fff07000080fa00a3
:104a4000000006000000fa0050ff07000042780056
:104a50000482fb004522de00044278000482fb0051
:104a60006102620004f0a7000402ea000402e90007
:104a70004f22de0004427800044078000080fa00f3
:104a8000000006000400fa0053ff0700000278004f
:104a900005002000048fbe001e00be00a5ff070019
:104aa0000002be0094628800a562880094628000c3
:104ab000a562800068024200e0824a004c2bdd00c3
:104ac0004422de0004027300c4aade000400be001b
:104ad00094ef07000002be00020020000312240031
:104ae0000400be0023ef07000002be000400be0069
:104af0000080fa00000006002600fa0047ff0700c9
:104b00000002be0096c32000164378000683fb0017
:104b100068031300860078008100e9000300330079
:104b20008502d1000482d300fbff370024079800e0
:104b30003507980094c3200014427800044f980071
:104b400096628000a762800004062f00f5ff2f0008
:104b50000602420087824a005407980065079800c1
:104b6000246280006123b900ee0290005e02900092
:104b700004aab90004007800ee0290005e029000e2
:104b800004aab9000402780004004000de0290008c
:104b90005e029000042ab800050040008002780000
:104ba000c428dd004c22de0004827000ccaade00a6
:104bb00004b8b9000000780006a9b90082007800a6
:104bc0000100400006037800040278000432b800b7
:104bd0000500400080027800452bdd004b22de00fe
:104be00004027300cbaade0074079800050f98003a
:104bf000f4618000cfa2de005e03900005b3b9002f
:104c000006037800ee03900004b8b9008003780032
:104c100007034300840278005e029000042ab80073
:104c20000503430086027800c52bdd004b22de0021
:104c300004827300cbaade00140f9800250f9800a1
:104c40007e0390008e0b90001e0a9000ae0a90002a
:104c50000602420087824a00340f9800450f9800f0
:104c6000e4618000cfa2de00422bdd00ce23de0017
:104c7000870373004223dd003e0a9000ce0a9000b5
:104c80000602420087824a000e4b90000683fb001a
:104c9000860078008100e90003003300040242002e
:104ca00085824a00fbff370062024200e0824a0030
:104cb0004e2bdd004222de0004027300c2aade0099
:104cc000540f9800650f980004628000cfa2de00a8
:104cd0005e03900005b3b90006037800ee03900070
:104ce00004b8b90080037800070343008402780009
:104cf0005e029000042ab800050343008602780093
:104d0000c32bdd004d22de0004827300cdaade003d
:104d100074079800050f9800146280006123b900a1
:104d2000ee0290005e02900004aab9000400780030
:104d3000ee0290005e02900004aab900040278001e
:104d400004004000de0290005e029000042ab800d9
:104d50000500400080027800c428dd004c22de00ff
:104d600004827000ccaade0004b8b900000078000c
:104d700006a9b9008200780001004000060378000f
:104d8000040278000432b800050040008002780078
:104d900040aade00cfa2de00140f9800250f980075
:104da0007e0390008e0b90001e0a9000ae0a9000c9
:104db0000602420087824a0062024200e0824a0004
:104dc0004e2bdd004222de0004027300c2aade0088
:104dd000340f9800450f9800646280006123b8008a
:104de0003e089000ce089000040028000500200036
:104df0000002420081824a0004b8b9000000780035
:104e000006a9b9008200780001004000060378007e
:104e1000040278000432b8000500400080027800e7
:104e2000c12bdd004f22de0004827300cf2ade009a
:104e3000740f9800051798002e039000be03900091
:104e40005e0a9000ee0a90000403530085835b0025
:104e50000e4a90000480fb0004352c000500200061
:104e6000800078008100e900030033008502d10052
:104e70000482d300fbff370004b8b90000007800bb
:104e800006a9b900820078000100400006037800fe
:104e9000040278000432b800050040008002780067
:104ea00014179800251798001417980025179800d4
:104eb0001e129000ae129000e00f5200e08f5a00d8
:104ec0000b0035001e129000ae129000040242004a
:104ed00085824a007e0990008e1190000400be0079
:104ee000ffef07000002be00048fbe00090037007c
:104ef0007e0990008e1190001e109000ae10900060
:104f0000f7ef07000002be000402420085824a005b
:104f1000048fbe001e02be00c8abde00c828dd0044
:104f20004823de00068370001e02be00c828dd0094
:104f30004822de0004827000c8aade0004b8b9006e
:104f40000000780006a9b900820078000100400046
:104f500006037800040278000432b800050040001f
:104f60008002780074079800050f98007407980075
:104f7000050f98008e0a9000e4bd200004aab90035
:104f8000040378007e0290006022b90004027800d9
:104f900004034300fe029000e4bd2000042ab80090
:104fa000050343008602780040aade00cfa2de009f
:104fb00074079800050f98009e02900034342e006c
:104fc00004aab900040378009e0278000082eb0076
:104fd00004aab90004027800040343009e0278008a
:104fe00034342e00042ab8000503430086027800fa
:104ff00040aade00cfa2de00140f9800250f980013
:105000007e0390008e0b90001e0a9000ae0a900066
:105010000603420087834a00f4ec200005002000cc
:105020000602420087824a004c2bdd004422de004b
:1050300004027300c4aade003e034200ae834a00ad
:105040000602be000400be000080fa000000060058
:105050000000fa00e0c2b300d7fd07000bfe070016
:10506000ddfd070000027800040078000080fa00ef
:10507000000006000400fa00f5ff070000027800b7
:1050800005002000048fbe001e00be0029fe0700a0
:105090000002be0094628800a562880094628000cd
:1050a000a562800068024200e0824a004c2bdd00cd
:1050b0004422de0004027300c4aade000400be0025
:1050c00018ee07000002be000200200003122400b8
:1050d0000400be00a7ed07000002be000400be00f1
:1050e0000080fa00000006000000fa00e1ff07005f
:1050f0000002be0002002000031124000400be00d4
:1051000060ee07000002be0002002000030a240037
:105110000400be0097ed07000002be000200200060
:10512000032024000400be0035ed07000002be008d
:105130000400be000080fa00000006000000fa0033
:1051400094c32000144278000482fb004622dd0054
:105150008442780044c3b30004c272000440780063
:1051600095fd0700cffd0700acfd07000002be0063
:1051700096c32000164378000683fb0068031300e3
:10518000860378008703e900030033008502d1001d
:105190000482d300fbff37000400be000080fa0049
:1051a000000006002600fa00e4ff07000002be002f
:1051b000240798003507980091c32000914078009b
:1051c000014f980096628000a762800004062f00bd
:1051d000f5ff2f000602420087824a00540798001c
:1051e00065079800246280006123b900ee029000f8
:1051f0005e02900004aab90004007800ee0290005c
:105200005e02900004aab900040278000400400085
:10521000de0290005e029000042ab8000500400003
:1052200080027800c428dd004c22de000482700079
:10523000ccaade0004b8b9000000780006a9b900c5
:105240008200780001004000060378000402780024
:105250000432b8000500400080027800452bdd00d4
:105260004b22de0004027300cbaade007407980014
:10527000050f9800f4618000cfa2de005e0390006d
:1052800005b3b90006037800ee03900004b8b90036
:105290008003780007034300840278005e029000d8
:1052a000042ab8000503430086027800c52bdd0000
:1052b0004b22de0004827300cbaade00140f98009c
:1052c000250f98007e0390008e0b90001e0a900020
:1052d000ae0a90000602420087824a00340f98000e
:1052e000450f9800e4618000cfa2de00422bdd0074
:1052f000ce23de00870373004223dd003e0a9000c8
:10530000ce0a90000602420087824a000e4b9000af
:105310000683fb00860078008100e900030033006b
:105320000402420085824a00fbff3700620242000d
:10533000e0824a004e2bdd004222de0004027300b0
:10534000c2aade00540f9800650f98000462800026
:10535000cfa2de005e03900005b3b900060378001b
:10536000ee03900004b8b9008003780007034300ff
:10537000840278005e029000042ab800050343000e
:1053800086027800c32bdd004d22de00048273000c
:10539000cdaade0074079800050f98001462800003
:1053a0006123b900ee0290005e02900004aab900e9
:1053b00004007800ee0290005e02900004aab9009a
:1053c0000402780004004000de0290005e029000bb
:1053d000042ab8000500400080027800c428dd00df
:1053e0004c22de0004827000ccaade0004b8b900b2
:1053f0000000780006a9b900820078000100400092
:1054000006037800040278000432b800050040006a
:105410008002780040aade00cfa2de00140f9800c0
:10542000250f98007e0390008e0b90001e0a9000be
:10543000ae0a90000602420087824a0062024200e1
:10544000e0824a004e2bdd004222de00040273009f
:10545000c2aade00340f9800450f980064628000f5
:105460006123b8003e089000ce0890000400280098
:10547000050020000002420081824a0004b8b90001
:105480000000780006a9b900820078000100400001
:1054900006037800040278000432b80005004000da
:1054a00080027800c12bdd004f22de0004827300f1
:1054b000cf2ade00740f9800051798002e03900085
:1054c000be0390005e0a9000ee0a900004035300b1
:1054d00085835b000e4a90000480fb0004352c009d
:1054e00005002000800078008100e90003003300ff
:1054f0008502d1000482d300fbff370004b8b90055
:105500000000780006a9b900820078000100400080
:1055100006037800040278000432b8000500400059
:105520008002780014179800251798001417980027
:10553000251798001e129000ae129000e00f520046
:10554000e08f5a000b0035001e129000ae12900042
:105550000402420085824a007e0990008e1190006c
:105560000400be005eee07000002be00048fbe0015
:10557000090037007e0990008e1190001e109000e7
:10558000ae10900056ee07000002be00040242007a
:1055900085824a00048fbe001e02be00c8abde003a
:1055a000c828dd004823de00068370001e02be000e
:1055b000c828dd004822de0004827000c8aade0090
:1055c00004b8b9000000780006a9b900820078008c
:1055d0000100400006037800040278000432b8009d
:1055e000050040008002780074079800050f9800bd
:1055f00074079800050f98008e0a9000e4bd200003
:1056000004aab900040378007e0290006022b90069
:105610000402780004034300fe029000e4bd200071
:10562000042ab800050343008602780040aade0081
:10563000cfa2de0074079800050f98009e0290002c
:1056400034342e0004aab900040378009e027800c6
:105650000082eb0004aab9000402780004034300ae
:105660009e02780034342e00042ab800050343005b
:105670008602780040aade00cfa2de00140f980058
:10568000250f98007e0390008e0b90001e0a90005c
:10569000ae0a90000603420087834a00f4ec200023
:1056a000050020000602420087824a004c2bdd00e4
:1056b0004422de0004027300c4aade003e0342005e
:1056c000ae834a000602be000400be000080fa005d
:1056d000000006000800fa00008fbe0022079800b4
:1056e000330798001e00be0091ec07000002be00c8
:1056f0002e019000be0190000400be001dec0700ca
:105700000002be0012e02d0023e423000400be00ce
:1057100010ed07000002be000401be0000002000e2
:1057200001f82300b5eb07000002be0002a0220032
:10573000d37224000400be00d2ec07000002be00b9
:105740000400be000080fa00000006000000fa001d
:105750000040eb006a00070010c0b30072000700b1
:1057600010c0b3007a00070010c0b3008200070029
:10577000f00b2f00b7000700b0162000cf00070085
:10578000f06b2000e700070050072000ff00070033
:1057900030ff2f0017010700c0fd2f002f01070069
:1057a0000080fa00000006000a00fa004007980096
:1057b0004e029000e3c0b30004017800b1c3b3000f
:1057c00080c6b3003006070000427800e04f520068
:1057d0000200320000c2eb00460037004e0290008b
:1057e000144f78004e029000944290004e029000b8
:1057f000054a78004e0290009e42780015429800bb
:105800004e029000a4429000154798004e0290006e
:10581000b44290004e029000254298004e02900043
:105820009e429000354298004e029000c442900083
:10583000254798004e029000d44290004e029000fe
:10584000454298004e029000ae42900055429800aa
:105850004e029000e4429000354798004e029000be
:10586000f44290004e029000654298004e02900073
:10587000be429000754298004e029000844a90000b
:10588000454798004e029000944a90004e029000c6
:10589000054a98004e029000ce429000154a9800aa
:1058a0004e029000a44a9000554798004e02900086
:1058b000b44a90004e029000254a98004e02900093
:1058c000de429000354a98004e029000c44a900093
:1058d000654798004e029000d44a90004e02900016
:1058e000454a98004e029000ee429000554a9800ba
:1058f0000042eb00044078000080fa00000006003f
:105900000200fa00004f78001e42780013c0b30076
:1059100062c0b300b1c6b30080c6b300a2050700e1
:105920000080fa00000006000200fa00004f780034
:105930001e42780033c0b30022c0b300b1c6b3002a
:1059400080c6b300980507000080fa00000006003a
:105950000200fa00004f78001e42780033c0b30006
:1059600022c0b300a1c1b30080c6b3008e050700fa
:105970000080fa00000006000200fa00004f7800e4
:105980001e42780023c0b30042c0b300b1c1b300cf
:1059900080c6b300840507000080fa0000000600fe
:1059a0000200fa00004f78001e42780023c0b300c6
:1059b00042c0b300c1c1b30080c6b3007a0507007e
:1059c0000080fa00000006000200fa00004f780094
:1059d0001e42780013c0b3000041eb0081c3b30046
:1059e00080c6b300700507000080fa0000000600c2
:1059f0000200fa00004f78001e41780091c1b30008
:105a000080c6b3001a0507000080fa0000000600f7
:105a10000000fa0023c0b30002c0200061c0b30040
:105a200080c6b3009805070004c020001442780027
:105a30000482fb00c822dd0014c02000144278005c
:105a40000482fb0005027200040078000080fa0066
:105a5000000006000200fa00000f78001e02780025
:105a60000401780061c0b30080c6b30021050700bf
:105a70000080fa00000006000000fa0023c0b30016
:105a800002c0200081c0b30080c6b3007e050700bd
:105a900004c02000144278000482fb00c822dd000c
:105aa00014c02000144278000482fb00050272003a
:105ab000040078000080fa00000006000200fa00ee
